:020000040000FA
:0400000007EF00F016
:1000080073822BED2DF0ECEF2CF04DC0D9FF4EC0D4
:10001800DAFFDECFF6FFDDCFF7FF0800F550250A3F
:10002800D8A419EF00F01BEF00F0F8EF03F04DC073
:10003800D9FF4EC0DAFFDE2A000EDD22000E0101D4
:10004800986F000E976F97C169F098C16AF067685A
:100058006868000E0001816F000E806F7AEF00F073
:1000680069804DC0D9FF4EC0DAFFDE2A000EDD22BE
:100078007AEF00F0698235EF00F0698435EF00F01F
:10008800698635EF00F0698835EF00F0000E816F62
:10009800010E806F7AEF00F04DC0D9FF4EC0DAFF35
:1000A800DECFF6FFDDCFF7FF0800F550516E526A3C
:1000B8005250000AD8B463EF00F04AEF00F05150F4
:1000C800200AD8B444EF00F0030AD8B447EF00F090
:1000D800080AD8B441EF00F0060AD8B434EF00F0AB
:1000E8001D0AD8B43EEF00F04AEF00F080518111AC
:1000F800D8B481EF00F083EF00F050EF00F069A072
:1001080088EF00F08AEF00F08BEF00F069924DC0A5
:10011800D9FF4EC0DAFFDECFF6FFDDCFF7FF0800CC
:10012800F5502A0AD8A49BEF00F09DEF00F0C7EF26
:1001380000F04DC0D9FF4EC0DAFFDE2A000EDD22E6
:100148004FC0D9FF50C0DAFFDFCF51F0020EDE26D4
:10015800DFCF52F0000EDD2251C0D9FF52C0DAFFC6
:10016800DECF97F1DDCF98F1010198BFC0EF00F025
:10017800BEEF00F00BEF01F06980976D981FD8B0C3
:10018800982B0BEF01F04DC0D9FF4EC0DAFFDECF40
:1001980014F0DDCF15F069EC16F014C097F115C016
:1001A80098F1DEEF00F04DC0D9FF4EC0DAFFDE2A2D
:1001B800000EDD22D00E516EFF0E526E4DC0D9FFDB
:1001C8004EC0DAFFDECFF6FFDDCFF7FF0800F550AF
:1001D800536E546A515053265250542254500AE1D7
:1001E8000A0E535CD8A0FBEF00F0FEEF00F0010E02
:1001F800FFEF00F0000E0001826F836B82518311C4
:10020800D8A409EF01F00BEF01F0D7EF00F04DC0D3
:10021800D9FF4EC0DAFFDECFF6FFDDCFF7FF0800CB
:10022800F550640AD8B41BEF01F01DEF01F02FEF71
:1002380001F04DC0D9FF4EC0DAFFDECFF6FFDDCFAB
:10024800F7FF0800F550690AD8A42DEF01F02FEF49
:1002580001F070EF01F04DC0D9FF4EC0DAFFDE2A81
:10026800000EDD224FC0D9FF50C0DAFFDFCF51F0BA
:10027800020EDE26DFCF52F0000EDD2251C0D9FF7C
:1002880052C0DAFFDECF84F0DDCF85F00001000E2A
:1002980085BFFF0E866F876F886F896F8A6F8B6F38
:1002A8004BC027F04CC028F084C029F085C02AF044
:1002B80086C02BF087C02CF088C02DF089C02EF0A6
:1002C8008AC02FF08BC030F0ADEC0DF027C04BF09A
:1002D80028C04CF013EF04F04DC0D9FF4EC0DAFF30
:1002E800DECF0DF0DDCF0EF0EF0E0F6E7F0E106E2D
:1002F800000E126E020E116E54EC25F00D500E1009
:10030800D8B489EF01F08BEF01F0A6EF01F04DC0F2
:10031800D9FF4EC0DAFFDECF0DF0DDCF0EF0F20EC2
:100328000F6E7F0E106E000E126E020E116E54ECE0
:1003380025F00D500E10D8A4A4EF01F0A6EF01F09F
:1003480003EF02F0020E4DC0D9FF4EC0DAFFDE26E1
:10035800000EDD224FC0D9FF50C0DAFFDFCF51F0C9
:10036800040EDE26DFCF52F0000EDD2251C0D9FF89
:1003780052C0DAFFDECF53F0DECF54F0DECF55F0B7
:10038800DECF56F053C057F054C058F055C059F05E
:1003980056C05AF05B6A5ABE5B685BC05CF05BC0D3
:1003A8005DF05BC05EF057C084F058C085F059C05E
:1003B80086F05AC087F05BC088F05CC089F05DC0E9
:1003C8008AF05EC08BF04BC027F04CC028F084C088
:1003D80029F085C02AF086C02BF087C02CF088C091
:1003E8002DF089C02EF08AC02FF08BC030F0ADEC14
:1003F8000DF027C04BF028C04CF013EF04F04DC0AF
:10040800D9FF4EC0DAFFDECFF6FFDDCFF7FF0800D9
:10041800F550750AD8A413EF02F015EF02F057EF64
:1004280002F04DC0D9FF4EC0DAFFDE2A000EDD22F1
:100438004FC0D9FF50C0DAFFDFCF51F0020EDE26E1
:10044800DFCF52F0000EDD2251C0D9FF52C0DAFFD3
:10045800DECF53F0DDCF54F053C08DF054C08EF092
:1004680000018F6B906B916B926B936B946B4BC08D
:1004780026F04CC027F08DC028F08EC029F08FC020
:100488002AF090C02BF091C02CF092C02DF093C0B0
:100498002EF094C02FF06CEC14F026C04BF027C05F
:1004A8004CF013EF04F04DC0D9FF4EC0DAFFDECF99
:1004B8000DF0DDCF0EF0F50E0F6E7F0E106E000EF4
:1004C800126E020E116E54EC25F00D500E10D8A4C9
:1004D80070EF02F072EF02F0BBEF02F0020E4DC0B7
:1004E800D9FF4EC0DAFFDE26000EDD224FC0D9FF4D
:1004F80050C0DAFFDFCF51F0040EDE26DFCF52F016
:10050800000EDD2251C0D9FF52C0DAFFDECF53F012
:10051800DECF54F0DECF55F0DECF56F05350000159
:100528008D6F54508E6F55508F6F5650906F916BE2
:10053800926B936B946B4BC026F04CC027F08DC028
:1005480028F08EC029F08FC02AF090C02BF091C0FF
:100558002CF092C02DF093C02EF094C02FF06CECCC
:1005680014F026C04BF027C04CF013EF04F04DC038
:10057800D9FF4EC0DAFFDECFF6FFDDCFF7FF080068
:10058800F550780AD8B4CBEF02F0CDEF02F0DFEFE8
:1005980002F04DC0D9FF4EC0DAFFDECFF6FFDDCF47
:1005A800F7FF0800F550580AD8A4DDEF02F0DFEF96
:1005B80002F02EEF03F04DC0D9FF4EC0DAFFDECFB8
:1005C800F6FFDDCFF7FF0800F5CF8CF04DC0D9FF5F
:1005D8004EC0DAFFDE2A000EDD224FC0D9FF50C020
:1005E800DAFFDFCF51F0020EDE26DFCF52F0000E29
:1005F800DD2251C0D9FF52C0DAFFDECF53F0DDCF84
:1006080054F053C08DF054C08EF000018F6B906B86
:10061800916B926B936B946B4BC024F04CC025F09C
:100628008DC026F08EC027F08FC028F090C029F02A
:1006380091C02AF092C02BF093C02CF094C02DF0FA
:100648008CC02EF01CEC0FF024C04BF025C04CF0F1
:1006580013EF04F04DC0D9FF4EC0DAFFDECF0DF026
:10066800DDCF0EF0F80E0F6E7F0E106E000E126EBC
:10067800020E116E54EC25F00D500E10D8B447EF51
:1006880003F049EF03F064EF03F04DC0D9FF4EC00B
:10069800DAFFDECF0DF0DDCF0EF0EC0E0F6E7F0E21
:1006A800106E000E126E020E116E54EC25F00D50F5
:1006B8000E10D8A462EF03F064EF03F0C2EF03F06A
:1006C8004DC0D9FF4EC0DAFFDECF51F0DDCF52F07A
:1006D800010E5126000E522251C0F6FF52C0F7FFFC
:1006E8000800F5CF8CF0020E4DC0D9FF4EC0DAFFDE
:1006F800DE26000EDD224FC0D9FF50C0DAFFDFCF63
:1007080051F0040EDE26DFCF52F0000EDD2251C07C
:10071800D9FF52C0DAFFDECF53F0DECF54F0DECF80
:1007280055F0DECF56F0535000018D6F54508E6F48
:1007380055508F6F5650906F916B926B936B946B73
:100748004BC024F04CC025F08DC026F08EC027F099
:100758008FC028F090C029F091C02AF092C02BF0E9
:1007680093C02CF094C02DF08CC02EF01CEC0FF030
:1007780024C04BF025C04CF013EF04F04DC0D9FF56
:100788004EC0DAFFDECFF6FFDDCFF7FF0800F550E9
:10079800250AD8A4D2EF03F0D4EF03F0EBEF03F06F
:1007A8004DC0D9FF4EC0DAFFDE2A000EDD22000E52
:1007B8000F6E250E0E6E4BC010F04CC011F01AECE7
:1007C80033F0000E4C6E010E4B6E13EF04F04DC06B
:1007D800D9FF4EC0DAFFDE2A000EDD22000E4C6E75
:1007E800000E4B6E13EF04F04DC0D9FF4EC0DAFF78
:1007F800DECFF6FFDDCFF7FF0800F5500E6E0F6A6B
:100808004BC010F04CC011F01AEC33F04DC0D9FFBA
:100818004EC0DAFFDE2A000EDD22E5EF03F01200FB
:100828006F50D8A41AEF04F01CEF04F01EEF04F088
:1008380072EF07F0020E0101AB19D8A426EF04F0FD
:1008480028EF04F042EF04F07250D8B42EEF04F011
:1008580030EF04F040EF04F0AE51D8B436EF04F0B6
:1008680038EF04F040EF04F07150D8A43EEF04F0E4
:1008780040EF04F042EF04F0000EAB6FAB51D8A488
:1008880048EF04F04AEF04F086EF04F0010E14EC90
:100898002EF0D20E0101106F7E0E116F000E126F36
:1008A800020E136F000E146F9FEC2BF09F0E0101C8
:1008B800106F7E0E116F000E126F040E136F000E74
:1008C800146F9FEC2BF08E0E0101106F7E0E116FCE
:1008D800000E126F050E136F000E146F9FEC2BF0B5
:1008E800B00E0101106F7E0E116F000E126F060E12
:1008F800136F000E146F9FEC2BF0010E0101AB6F0C
:1009080072EF07F0010E726E010EAE6F010E716E7E
:10091800AB05D8A492EF04F094EF04F02DEF05F0A6
:100928007250D8B49AEF04F09CEF04F0ACEF04F0E6
:10093800AE51D8B4A2EF04F0A4EF04F0ACEF04F089
:100948007150D8A4AAEF04F0ACEF04F02DEF05F035
:100958007150D8B4B2EF04F0B4EF04F0C2EF04F071
:10096800FB0E106F7F0E116F580E126F040E136F6F
:10097800000E146F9FEC2BF0D4EF04F0C3C119F0F4
:100988001A6A28EC2CF019C010F11AC011F1580E8F
:100998000101126F040E136F000E146F9FEC2BF001
:1009A8000101AE51D8B4DBEF04F0DDEF04F0EBEF5A
:1009B80004F0D10E106F7F0E116F580E126F050ED6
:1009C800136F000E146F9FEC2BF0F7EF04F0D60EA8
:1009D800106F7F0E116F580E126F050E136F000EF9
:1009E800146F9FEC2BF07250D8B4FDEF04F0FFEFBA
:1009F80004F00EEF05F0D10E0101106F7F0E116F9C
:100A0800580E126F060E136F000E146F9FEC2BF02A
:100A18001BEF05F0D60E0101106F7F0E116F580EF7
:100A2800126F060E136F000E146F9FEC2BF0080E5A
:100A38000101836F9E0E826F4B0E0400E82EFDD7D6
:100A4800822FFBD7832FF9D7040000F0040072EF40
:100A580007F0020EAB19D8B434EF05F036EF05F005
:100A680049EF05F0010E14EC2EF0020E0101AB6FF8
:100A7800D169000EA26F000EA16F000EAA6FD06997
:100A8800000E0201B36F000EA46F0101D251020DD6
:100A9800930EF324F66E790EF420F76E0900F5CF65
:100AA800E1F20A00F5CFE2F2AC0ED525D96EDA6A8A
:100AB800010EDA22DF500201E56F0101AD51D119B3
:100AC800D8B469EF05F06BEF05F0E4EF05F0AD5130
:100AD800D8A471EF05F073EF05F0A8EF05F0B00E9C
:100AE800106F7F0E116F500E126F000E136F000EF5
:100AF800146F9FEC2BF07D0E0101106F7E0E116FAD
:100B0800000E126F050E136F000E146F9FEC2BF082
:100B1800C10E0101106F7E0E116F000E126F060ECE
:100B2800136F000E146F9FEC2BF07D0E0101106FF8
:100B38007E0E116F000E126F070E136F000E146FEA
:100B48009FEC2BF0E2EF05F0A90E106F7F0E116FEE
:100B5800500E126F000E136F000E146F9FEC2BF0E7
:100B68007D0E0101106F7E0E116F000E126F050EC3
:100B7800136F000E146F9FEC2BF07D0E0101106FA8
:100B88007E0E116F000E126F060E136F000E146F9B
:100B98009FEC2BF07D0E0101106F7E0E116F000E81
:100BA800126F070E136F000E146F9FEC2BF00101EC
:100BB800D069000E0201B36F000EA46FADC1D1F170
:100BC8000201E1510101A1190BE10201E251010108
:100BD800A219D8B4F2EF05F0F4EF05F041EF06F0F2
:100BE8009F0E106F7F0E116F000E126F030E136FA2
:100BF800000E146F9FEC2BF0E1C219F0E2C21AF05C
:100C080028EC2CF019C0E3F21AC0E4F2E3C20DF0AC
:100C1800E4C20EF05EEC30F00D5008080201E06FFF
:100C2800E3C210F1E4C211F1E051080DF3CF12F163
:100C3800030E0101136F000E146F9FEC2BF0E40EEE
:100C48000101106F7F0E116F400E126F030E136FAC
:100C5800000E146F9FEC2BF0E80E0101106F7F0E51
:100C6800116F600E126F030E136F000E146F9FEC5E
:100C78002BF0E1C2A1F1E2C2A2F10201E5510101AA
:100C8800AA19D8B44AEF06F04CEF06F09FEF06F029
:100C9800BD0E106F7F0E116F000E126F040E136FD2
:100CA800000E146F9FEC2BF01B0E0201E519D8A45F
:100CB80060EF06F062EF06F071EF06F0B70E010183
:100CC800106F7F0E116F300E126F040E136F000E2F
:100CD800146F9FEC2BF090EF06F0E5C219F01A6A3A
:100CE80028EC2CF019C010F11AC011F1300E0101D6
:100CF800126F040E136F000E146F9FEC2BF0E00EB2
:100D08000101106F7F0E116F400E126F040E136FEA
:100D1800000E146F9FEC2BF0E80E0101106F7F0E90
:100D2800116F600E126F040E136F000E146F9FEC9C
:100D38002BF0E5C2AAF10101AD51D8B4A6EF06F037
:100D4800A8EF06F072EF07F0AC51D019D8B4AFEFA6
:100D580006F0B1EF06F0F4EF06F0CC0E106F7F0E40
:100D6800116F000E126F050E136F000E146F9FECBB
:100D78002BF0ACC119F01A6A28EC2CF019C0E3F278
:100D88001AC0E4F2E3C20DF0E4C20EF05EEC30F0FB
:100D98000D5008080201E06F860E0101106F7E0EEB
:100DA800116F200E126F050E136F000E146F9FEC5B
:100DB8002BF0ACC119F01A6A28EC2CF019C010F10C
:100DC8001AC011F10201E051080DF3CF12F1050E1E
:100DD8000101136F000E146F9FEC2BF0ACC1D0F122
:100DE800B30E0D6E020E0E6EE50E0F6E010E106E36
:100DF800000E126E0F0E116E0BEC2BF00D500E1034
:100E0800D8B409EF07F00BEF07F033EF07F0C70E80
:100E18000101106F7F0E116F000E126F060E136F17
:100E2800000E146F9FEC2BF0E50E0101106F010E00
:100E3800116F300E126F060E136F000E146F9FECB9
:100E48002BF0B30E0D6E020E0E6EE50E0F6E010E38
:100E5800106E000E126E0F0E116E36EC30F0A40EEE
:100E68000D6E020E0E6ED60E0F6E010E106E000E77
:100E7800126E0F0E116E0BEC2BF00D500E10D8B435
:100E880048EF07F04AEF07F072EF07F0C20E0101D2
:100E9800106F7F0E116F000E126F070E136F000E8A
:100EA800146F9FEC2BF0D60E0101106F010E116F1D
:100EB800280E126F070E136F000E146F9FEC2BF0A5
:100EC800A40E0D6E020E0E6ED60E0F6E010E106E73
:100ED800000E126E0F0E116E36EC30F012000F0E6F
:100EE800C112F19E360EF66E7B0EF76E0800F5CF36
:100EF8000DF0340EF66E7B0EF76E0900F5CFD9FFB4
:100F08000900F5CFDAFF0D50DF12310EF66E7B0EB9
:100F1800F76E0800F550FF0A0D6E2D0EF66E7B0E6B
:100F2800F76E0900F5CF0EF00900F5CF0FF00EC0EF
:100F3800D9FF0FC0DAFF0D50DF16310EF66E7B0EAB
:100F4800F76E0800F550FF0A0D6E2F0EF66E7B0E39
:100F5800F76E0900F5CFD9FF0900F5CFDAFF0D507C
:100F6800DF162C0EF66E7B0EF76E0800F550FF0AA2
:100F78000D6E280EF66E7B0EF76E0900F5CF0EF09B
:100F88000900F5CF0FF00EC0D9FF0FC0DAFF0D50E2
:100F9800DF162C0EF66E7B0EF76E0800F550FF0A72
:100FA8000D6E2A0EF66E7B0EF76E0900F5CFD9FF8F
:100FB8000900F5CFDAFF0D50DF16270EF66E7B0E0F
:100FC800F76E0800F550FF0A0D6E230EF66E7B0EC5
:100FD800F76E0900F5CF0EF00900F5CF0FF00EC03F
:100FE800D9FF0FC0DAFF0D50DF16270EF66E7B0E05
:100FF800F76E0800F550FF0A0D6E250EF66E7B0E93
:10100800F76E0900F5CFD9FF0900F5CFDAFF0D50CB
:10101800DF16220EF66E7B0EF76E0800F550FF0AFB
:101028000D6E1E0EF66E7B0EF76E0900F5CF0EF0F4
:101038000900F5CF0FF00EC0D9FF0FC0DAFF0D5031
:10104800DF16220EF66E7B0EF76E0800F550FF0ACB
:101058000D6E200EF66E7B0EF76E0900F5CFD9FFE8
:101068000900F5CFDAFF0D50DF161D0EF66E7B0E68
:10107800F76E0800F5CF0DF01B0EF66E7B0EF76EBF
:101088000900F5CFD9FF0900F5CFDAFF0D50DF12BF
:10109800180EF66E7B0EF76E0800F5CF0DF0140EE5
:1010A800F66E7B0EF76E0900F5CF0EF00900F5CF4E
:1010B8000FF00EC0D9FF0FC0DAFF0D50DF12180E67
:1010C800F66E7B0EF76E0800F5CF0DF0160EF66E75
:1010D8007B0EF76E0900F5CFD9FF0900F5CFDAFFCF
:1010E8000D50DF12130EF66E7B0EF76E0800F5CF6B
:1010F8000DF00F0EF66E7B0EF76E0900F5CF0EF0B1
:101108000900F5CF0FF00EC0D9FF0FC0DAFF0D5060
:10111800DF12130EF66E7B0EF76E0800F550FF0A0D
:101128000D6E110EF66E7B0EF76E0900F5CFD9FF26
:101138000900F5CFDAFF0D50DF16090EF66E7B0EAB
:10114800F76E0800F5CF0DF0050EF66E7B0EF76E04
:101158000900F5CF0EF00900F5CF0FF00EC0D9FF4A
:101168000FC0DAFF0D50DF12090EF66E7B0EF76E18
:101178000800F550FF0A0D6E070EF66E7B0EF76E2F
:101188000900F5CFD9FF0900F5CFDAFF0D50DF16BA
:10119800FF0EF66E7A0EF76E0800F5CF0DF0FB0E17
:1011A800F66E7A0EF76E0900F5CF0EF00900F5CF4E
:1011B8000FF00EC0D9FF0FC0DAFF0D50DF12FF0E7F
:1011C800F66E7A0EF76E0800F550FF0A0D6EFD0EEA
:1011D800F66E7A0EF76E0900F5CFD9FF0900F5CF44
:1011E800DAFF0D50DF16F50EF66E7A0EF76E080070
:1011F800F5CF0DF0F10EF66E7A0EF76E0900F5CF09
:101208000EF00900F5CF0FF00EC0D9FF0FC0DAFFBE
:101218000D50DF12F50EF66E7A0EF76E0800F550D7
:10122800FF0A0D6EF30EF66E7A0EF76E0900F5CF13
:10123800D9FF0900F5CFDAFF0D50DF16EB0EF66E79
:101248007A0EF76E0800F5CF0DF0E90EF66E7A0EFD
:10125800F76E0900F5CFD9FF0900F5CFDAFF0D5079
:10126800DF12E60EF66E7A0EF76E0800F5CF0DF077
:10127800E40EF66E7A0EF76E0900F5CFD9FF090075
:10128800F5CFDAFF0D50DF12E10EF66E7A0EF76E2B
:101298000800F5CF0DF0DF0EF66E7A0EF76E090036
:1012A800F5CFD9FF0900F5CFDAFF0D50DF12DC0EBC
:1012B800F66E7A0EF76E0800F5CF0DF0DA0EF66EC0
:1012C8007A0EF76E0900F5CFD9FF0900F5CFDAFFDE
:1012D8000D50DF12D70EF66E7A0EF76E0800F5CFB6
:1012E8000DF0D50EF66E7A0EF76E0900F5CFD9FF20
:1012F8000900F5CFDAFF0D50DF12D70EF66E7A0E21
:10130800F76E0800F5CF0DF0D30EF66E7A0EF76E75
:101318000900F5CF0EF00900F5CF0FF00EC0D9FF88
:101328000FC0DAFF0D50DF12D20EF66E7A0EF76E8E
:101338000800F5CF0DF0D00EF66E7A0EF76E0900A4
:10134800F5CFD9FF0900F5CFDAFF0D50DF12D20E25
:10135800F66E7A0EF76E0800F5CF0DF0CE0EF66E2B
:101368007A0EF76E0900F5CF0EF00900F5CF0FF0F1
:101378000EC0D9FF0FC0DAFF0D50DF12CD0EF66E8A
:101388007A0EF76E0800F5CF0DF0CB0EF66E7A0EDA
:10139800F76E0900F5CFD9FF0900F5CFDAFF0D5038
:1013A800DF12CD0EF66E7A0EF76E0800F5CF0DF04F
:1013B800C90EF66E7A0EF76E0900F5CF0EF0090029
:1013C800F5CF0FF00EC0D9FF0FC0DAFF0D50DF12B6
:1013D800C80EF66E7A0EF76E0800F5CF0DF0C60E41
:1013E800F66E7A0EF76E0900F5CFD9FF0900F5CF32
:1013F800DAFF0D50DF12C80EF66E7A0EF76E08008F
:10140800F5CF0DF0C40EF66E7A0EF76E0900F5CF23
:101418000EF00900F5CF0FF00EC0D9FF0FC0DAFFAC
:101428000D50DF12C30EF66E7A0EF76E0800F5CF78
:101438000DF0C10EF66E7A0EF76E0900F5CFD9FFE2
:101448000900F5CFDAFF0D50DF12C30EF66E7A0EE3
:10145800F76E0800F5CF0DF0BF0EF66E7A0EF76E38
:101468000900F5CF0EF00900F5CF0FF00EC0D9FF37
:101478000FC0DAFF0D50DF12BE0EF66E7A0EF76E51
:101488000800F5CF0DF0BC0EF66E7A0EF76E090067
:10149800F5CFD9FF0900F5CFDAFF0D50DF12BE0EE8
:1014A800F66E7A0EF76E0800F5CF0DF0BA0EF66EEE
:1014B8007A0EF76E0900F5CF0EF00900F5CF0FF0A0
:1014C8000EC0D9FF0FC0DAFF0D50DF12B90EF66E4D
:1014D8007A0EF76E0800F5CF0DF0B70EF66E7A0E9D
:1014E800F76E0900F5CFD9FF0900F5CFDAFF0D50E7
:1014F800DF12120019C0D9FF1AC0DAFFDE50DE1061
:10150800D8B489EF0AF08BEF0AF03AEF0CF0020E2C
:10151800216E000E226E000E236E000E246E20EE49
:1015280018F01950D9261A50DA22DF501B6E010E16
:101538001B161BC01CF01D6A1E6A1F6A030ED8907A
:101548001C361D361E361F36E82EA3EF0AF01C5037
:1015580021121D5022121E5023121F50241220EE59
:1015680017F01950D9261A50DA22DF501B6E010ED7
:101578001B161BC01CF01D6A1E6A1F6A040ED89039
:101588001C361D361E361F36E82EC3EF0AF01C50D7
:1015980021121D5022121E5023121F50241220EE19
:1015A80016F01950D9261A50DA22DF501B6E010E98
:1015B8001B161BC01CF01D6A1E6A1F6A050ED890F8
:1015C8001C361D361E361F36E82EE3EF0AF01C5077
:1015D80021121D5022121E5023121F50241220EED9
:1015E80015F01950D9261A50DA22DF501B6E010E59
:1015F8001B161BC01CF01D6A1E6A1F6A060ED890B7
:101608001C361D361E361F36E82E03EF0BF01C5015
:1016180021121D5022121E5023121F50241220EE98
:1016280014F01950D9261A50DA22DF501B6E010E19
:101638001B161BC01CF01D6A1E6A1F6A070ED89075
:101648001C361D361E361F36E82E23EF0BF01C50B5
:1016580021121D5022121E5023121F50241220EE58
:1016680013F01950D9261A50DA22DF501B6E010EDA
:101678001B161BC01CF01D6A1E6A1F6A1EC01FF0C5
:101688001DC01EF01CC01DF01C6A1C5021121D50EC
:1016980022121E5023121F50241220EE12F019504D
:1016A800D9261A50DA22DF501B6E0F0E1B161BC0EC
:1016B8001CF01D6A1E6A1F6A090ED8901C361D365A
:1016C8001E361F36E82E61EF0BF01C5021121D50FC
:1016D80022121E5023121F50241220EE11F019500E
:1016E800D9261A50DA22DF501B6E010E1B161BC0BA
:1016F8001CF01D6A1E6A1F6A0D0ED8901C361D3616
:101708001E361F36E82E81EF0BF01C5021121D509B
:1017180022121E5023121F50241220EE0FF01950CF
:10172800D9261A50DA22DECF1BF0DDCF1CF0FF0ECF
:101738001B141D6E030E1C141E6E1F6A206A0E0EEB
:10174800D8901D361E361F362036E82EA4EF0BF033
:101758001D5021121E5022121F50231220502412F5
:1017680020EE0EF01950D9261A50DA22DF501B6EDF
:10177800010E1B161BC01CF01D6A1E6A1F6A1CC0C6
:101788001FF01E6A1D6A1C6A1C5021121D5022126D
:101798001E5023121F50241220EE0DF01950D92686
:1017A8001A50DA22DF501B6E010E1B161BC01CF0EC
:1017B8001D6A1E6A1F6A190ED8901C361D361E3601
:1017C8001F36E82EE0EF0BF01C5021121D5022129C
:1017D8001E5023121F50241220EE0CF01950D92647
:1017E8001A50DA22DF501B6E070E1B161BC01CF0A6
:1017F8001D6A1E6A1F6A1A0ED8901C361D361E36C0
:101808001F36E82E00EF0CF01C5021121D5022123A
:101818001E5023121F50241220EE0BF01950D92607
:101828001A50DA22DF501B6E030E1B161BC01CF069
:101838001D6A1E6A1F6A1D0ED8901C361D361E367C
:101848001F36E82E20EF0CF01C5021121D502212DA
:101858001E5023121F50241221C00DF022C00EF07A
:1018680023C00FF024C010F055EC18F0120000014E
:1018780020EE2BF0A351D926A451DA22DECF0DF0A9
:10188800DECF0EF0DECF0FF0DECF10F020EE2FF01F
:10189800A351D926A451DA22DECF11F0DECF12F0FF
:1018A800DECF13F0DECF14F0B9EC2AF00DC0A9F0AA
:1018B8000EC0AAF0000120EE2BF0A351D926A451A6
:1018C800DA22DECF0DF0DECF0EF0DECF0FF0DECF66
:1018D80010F020EE2FF0A351D926A451DA22DECF42
:1018E80011F0DECF12F0DECF13F0DECF14F0E4EC0F
:1018F8002BF00D500E100F101010D8B486EF0CF00E
:1019080088EF0CF0ADEF0CF0370E0001956F7B0EF1
:10191800966F20EE2FF0A351D926A451DA22DECFFC
:1019280097F0DECF98F0DECF99F0DECF9AF020EE78
:101938002BF0A351D926A451DA22DECF9BF0DECFBB
:101948009CF0DECF9DF0DECF9EF0B1EC32F0ACEF34
:101958000DF00001AABFB8EF0CF0040EAA5DD8A0E4
:10196800B8EF0CF0BAEF0CF0DEEF0CF0810E956FCB
:101978007B0E966F20EE2FF0A351D926A451DA22C0
:10198800DECF97F0DECF98F0DECF99F0DECF9AF079
:1019980020EE2BF0A351D926A451DA22DECF9BF0FA
:1019A800DECF9CF0DECF9DF0DECF9EF0B1EC32F0C2
:1019B800ACEF0DF0A9B1E3EF0CF0E5EF0CF004EF9C
:1019C8000DF0A9C00DF0AAC00EF0000E106E020EA8
:1019D8000F6E3AEC28F0000120EE0FF0A351D92643
:1019E800A451DA220DC0DEFF0EC0DDFF20EE0EF09E
:1019F800A351D926A451DA22010EDF6E16EF0DF09D
:101A080020EE0FF0A351D926A451DA22A9C0DEFF97
:101A1800AAC0DDFF20EE0EF0A351D926A451DA2288
:101A2800000EDF6E20EE19F0A351D926A451DA2258
:101A3800000EDF6E20EE2FF0A351D926A451DA2232
:101A4800FF0EDE240D6EFF0EDE200E6EFF0EDE2072
:101A58000F6EFF0EDE20106E7D0E116E000E126EE0
:101A6800000E136E000E146EB9EC2AF0010E0D2450
:101A78000001A56F000E0E20A66F000E0F20A76FA5
:101A8800000E1020A86FA851A71108E1A605D8A03C
:101A980050EF0DF052EF0DF083EF0DF020EE19F03E
:101AA800A351D926A451DA22010EDF6E20EE2FF0C1
:101AB800A351D926A451DA22FF0EDE240D6EFF0EA3
:101AC800DE200E6EFF0EDE200F6EFF0EDE20106E83
:101AD800FA0E116E000E126E000E136E000E146ECA
:101AE800B9EC2AF0010E0D240001A56F000E0E209E
:101AF800A66F000E0F20A76F000E1020A86FA85128
:101B0800A71108E1A605D8A08CEF0DF08EEF0DF017
:101B1800A4EF0DF00E0E956F7C0E966F20EE2FF051
:101B2800A351D926A451DA22DECF97F0DECF98F060
:101B3800DECF99F0DECF9AF0B1EC32F0ACEF0DF0D9
:101B480020EE22F0A351D926A451DA22A5C0DFFF46
:101B5800120029C041F02AC042F02BC043F02CC02B
:101B680044F02DC045F02EC046F02FC047F030C0DD
:101B780048F048BEC2EF0DF0C5EF0DF0010EC6EFFC
:101B88000DF0000E3F6E406A3F504010D8B4CFEFC2
:101B98000DF0D1EF0DF0E1EF0DF0481E471E461E87
:101BA800451E441E431E421E416C000E4222432223
:101BB8004422452246224722482268BEE6EF0DF01D
:101BC800E8EF0DF0E9EF0DF0699268BEF6EF0DF061
:101BD800685006E16704D8B0F4EF0DF0F6EF0DF0A9
:101BE800FCEF0DF0000E3C6E010E3B6E00EF0EF0A8
:101BF80067C03BF068C03CF097C13DF098C13EF02B
:101C08003F504010D8A40BEF0EF00DEF0EF014EF7C
:101C18000EF069A412EF0EF014EF0EF017EF0EF0AD
:101C28003D06D8A03E06000E4A6E1F0E496E000EF5
:101C38000201886F9CEF0EF04906D8A04A06690E8B
:101C48004924D96E020E4A20DA6E41C00DF042C016
:101C58000EF043C00FF044C010F045C011F046C06C
:101C680012F047C013F048C014F00A0E156E000EAB
:101C7800166E000E176E000E186E000E196E000E0E
:101C88001A6E000E1B6E000E1C6EF4EC1DF00DC0DB
:101C980031F00EC032F00FC033F010C034F011C074
:101CA80035F012C036F013C037F014C038F031C028
:101CB8001FF033C020F058EC31F01F50300FDF6EAA
:101CC8003B06D8A03C063D06D8A03E0641C00DF014
:101CD80042C00EF043C00FF044C010F045C011F0F0
:101CE80046C012F047C013F048C014F00A0E156E33
:101CF800000E166E000E176E000E186E000E196E8E
:101D0800000E1A6E000E1B6E000E1C6EC1EC1BF04E
:101D18000DC041F00EC042F00FC043F010C044F0B7
:101D280011C045F012C046F013C047F014C048F087
:101D38004ABEA7EF0EF04A5008E14904D8A0A7EF21
:101D48000EF0A9EF0EF0D9EF0EF0415042104310FB
:101D580044104510461047104810D8A4B6EF0EF0AE
:101D6800B8EF0EF020EF0EF03CBEC5EF0EF03C5081
:101D780006E13B04D8B0C3EF0EF0C5EF0EF020EF3C
:101D88000EF03EBED0EF0EF03E5008E13D04D8A064
:101D9800D0EF0EF0D2EF0EF0D9EF0EF069B2D7EF18
:101DA8000EF0D9EF0EF020EF0EF03F504010D8A4FF
:101DB800E0EF0EF0E2EF0EF0E9EF0EF069A4E7EFC6
:101DC8000EF0E9EF0EF007EF0FF04906D8A04A062B
:101DD8003F504010D8A4F3EF0EF0F5EF0EF0FBEFF4
:101DE8000EF0000E3A6E2B0E396EFFEF0EF0000E5D
:101DF8003A6E2D0E396E690E4924D96E020E4A20AC
:101E0800DA6E39C0DFFF27C019F028C01AF0690E52
:101E180049241B6E020E4A201C6E3DC01DF03EC0B8
:101E28001EF09CEC28F019C027F01AC028F0120008
:101E380068BE21EF0FF023EF0FF024EF0FF0699247
:101E480068BE31EF0FF0685006E16704D8B02FEF95
:101E58000FF031EF0FF037EF0FF0000E3C6E010E70
:101E68003B6E3BEF0FF067C03BF068C03CF097C19A
:101E78003DF098C13EF069A844EF0FF046EF0FF02F
:101E88004AEF0FF0FE0E3D26FF0E3E2226C03FF021
:101E980027C040F028C041F029C042F02AC043F0D2
:101EA8002BC044F02CC045F02DC046F0000E486E03
:101EB8001F0E476E000E0201886F16EF10F04706DE
:101EC800D8A048060F0E3F14496E4A6A4ABE76EFFC
:101ED8000FF04A5009E10A0E495CD8A076EF0FF0DE
:101EE80078EF0FF080EF0FF0570E4924496E000E7F
:101EF8004A204A6E86EF0FF0300E4924496E000ED4
:101F08004A204A6EBF0E2F6EFF0E306E2E50316E75
:101F1800326A2F5031263050322232500AE11A0EDE
:101F2800315CD8A09AEF0FF09DEF0FF0010E9EEFF5
:101F38000FF0000E376E386A37503810D8B4A7EF54
:101F48000FF0A9EF0FF0D9EF0FF09F0E2F6EFF0ED5
:101F5800306E200E4910316E000E4A10326E2F502E
:101F680031263050322232500AE11A0E315CD8A0A4
:101F7800C0EF0FF0C3EF0FF0010EC4EF0FF0000E2B
:101F8800396E3A6A39503A10D8B4CDEF0FF0CFEF26
:101F98000FF0D9EF0FF049C013F04AC014F0A9ECC4
:101FA8002EF013C049F014C04AF0690E4724D96EC8
:101FB800020E4820DA6E49C0DFFF3B06D8A03C0677
:101FC8003D06D8A03E063FC02FF040C030F041C0CB
:101FD80031F042C032F043C033F044C034F045C061
:101FE80035F046C036F0050E03EF10F0D8903632C3
:101FF8003532343233323232313230322F32E82E07
:10200800FAEF0FF02FC03FF030C040F031C041F080
:1020180032C042F033C043F034C044F035C045F01C
:1020280036C046F048BE22EF10F0485009E1020ED3
:10203800475CD8A022EF10F024EF10F054EF10F016
:102048003F504010411042104310441045104610B4
:10205800D8A431EF10F033EF10F063EF0FF03CBE6F
:1020680040EF10F03C5006E13B04D8B03EEF10F0D2
:1020780040EF10F063EF0FF03EBE4BEF10F03E5014
:1020880008E13D04D8A04BEF10F04DEF10F054EFED
:1020980010F069B252EF10F054EF10F063EF0FF048
:1020A80069A859EF10F05BEF10F071EF10F04706D8
:1020B800D8A04806690E4724D96E020E4820DA6E69
:1020C8002EC0DFFF4706D8A04806690E4724D96E00
:1020D800020E4820DA6E300EDF6E24C019F025C0DB
:1020E8001AF0690E47241B6E020E48201C6E3DC074
:1020F8001DF03EC01EF09CEC28F019C024F01AC058
:1021080025F0120019C0D9FF1AC0DAFFDE50DE1020
:10211800D8B491EF10F093EF10F0E1EF11F0040E46
:10212800206E000E216E000E226E000E236E20EE31
:1021380029F01950D9261A50DA22DF501B6E030EE7
:102148001B161BC01CF01D6A1E6A1F6A030ED8905E
:102158001C361D361E361F36E82EABEF10F01C500D
:1021680020121D5021121E5022121F50231220EE41
:1021780028F01950D9261A50DA22DF501B6E010EAA
:102188001B161BC01CF01D6A1E6A1F6A050ED8901C
:102198001C361D361E361F36E82ECBEF10F01C50AD
:1021A80020121D5021121E5022121F50231220EE01
:1021B80027F01950D9261A50DA22DF501B6E030E69
:1021C8001B161BC01CF01D6A1E6A1F6A060ED890DB
:1021D8001C361D361E361F36E82EEBEF10F01C504D
:1021E80020121D5021121E5022121F50231220EEC1
:1021F80026F01950D9261A50DA22DF501B6E010E2C
:102208001B161BC01CF01D6A1E6A1F6A1EC01FF029
:102218001DC01EF01CC01DF01C6A1C5020121D5051
:1022280021121E5022121F50231220EE25F01950A1
:10223800D9261A50DA22DF501B6E010E1B161BC05E
:102248001CF01D6A1E6A1F6A090ED8901C361D36BE
:102258001E361F36E82E29EF11F01C5020121D5093
:1022680021121E5022121F50231220EE24F0195062
:10227800D9261A50DA22DF501B6E010E1B161BC01E
:102288001CF01D6A1E6A1F6A0A0ED8901C361D367D
:102298001E361F36E82E49EF11F01C5020121D5033
:1022A80021121E5022121F50231220EE23F0195023
:1022B800D9261A50DA22DF501B6E010E1B161BC0DE
:1022C8001CF01D6A1E6A1F6A0B0ED8901C361D363C
:1022D8001E361F36E82E69EF11F01C5020121D50D3
:1022E80021121E5022121F50231220EE22F01950E4
:1022F800D9261A50DA22DF501B6E1BC01CF01D6A4B
:102308001E6A1F6A0C0ED8901C361D361E361F36E4
:10231800E82E87EF11F01C5020121D5021121E507C
:1023280022121F50231220EE21F01950D9261A50DC
:10233800DA22DF501B6E070E1B161BC01CF01D6A2D
:102348001E6A1F6A140ED8901C361D361E361F369C
:10235800E82EA7EF11F01C5020121D5021121E501C
:1023680022121F50231220EE20F01950D9261A509D
:10237800DA22DF501B6E010E1B161BC01CF01D6AF3
:102388001E6A1F6A170ED8901C361D361E361F3659
:10239800E82EC7EF11F01C5020121D5021121E50BC
:1023A80022121F50231220C00DF021C00EF022C0AF
:1023B8000FF023C010F055EC18F01200AAC0BDF0C1
:1023C800ABC0BEF0000E0001B46F000EB36F000E7C
:1023D800BA6F000EB96FFFEF12F0B9C00DF0BAC0B6
:1023E8000EF0000E106E070E0F6EC5EC32F00D5099
:1023F8000001AC25C36F0E50AD21C46F20EE05F06F
:10240800C351D926C451DA22DECFBBF0DDCFBCF0F0
:1024180020EE02F0C351D926C451DA22DFB017EFFB
:1024280012F01AEF12F0010E1BEF12F0000EB56F4A
:10243800B66B20EE02F0C351D926C451DA22DFA6CA
:1024480028EF12F02BEF12F0010E2CEF12F0000E15
:10245800B76FB86B20EE02F0C351D926C451DA2207
:10246800DFA239EF12F03BEF12F062EF12F0B5C0C5
:1024780011F0B6C012F0B3C013F0B4C014F0B7C076
:1024880015F0B8C016F0C3C0D9FFC4C0DAFFDF50DA
:1024980072EC24F011C0C1F012C0C2F00001C151A9
:1024A800C211D8B45AEF12F05CEF12F05EEF12F0DE
:1024B80014EF13F0000EB46F010EB36FB551B611DF
:1024C800D8B469EF12F06BEF12F0AFEF12F020EE14
:1024D80003F0C351D926C451DA22DECFBFF0DDCFD5
:1024E800C0F0A0EF12F0BF51C011D8A47EEF12F0D7
:1024F80081EF12F0010E82EF12F0000EB16FB26B95
:10250800BBC0A3F0BCC0A4F0B1C0A5F0B2C0A6F097
:10251800E4EC24F0A3C0C1F0A4C0C2F00001BB4B9E
:10252800BC2BC151C211D8B49CEF12F09EEF12F02F
:10253800A0EF12F014EF13F0BF07D8A0C007BF290F
:1025480006E1C029D8A4ABEF12F0ADEF12F077EF97
:1025580012F0E5EF12F020EE03F0C351D926C45172
:10256800DA22DECFBFF0DDCFC0F0D8EF12F0B7C06F
:1025780011F0B8C012F0BBC0D9FFBCC0DAFFDF5001
:102588006AEC2DF011C0C1F012C0C2F00001BB4BC3
:10259800BC2BC151C211D8B4D4EF12F0D6EF12F04F
:1025A800D8EF12F014EF13F0BF07D8A0C007BF2967
:1025B80006E1C029D8A4E3EF12F0E5EF12F0BBEF73
:1025C80012F020EE02F0C351D926C451DA22DFA45A
:1025D800F0EF12F0F2EF12F0FDEF12F0BDC028F0AC
:1025E800BEC029F010EC32F0000E0001B46F000EEE
:1025F800B36FB94BBA2BAE51B95DBA51800AB06FFF
:10260800AF51800AB059D8A00CEF13F00EEF13F0B9
:10261800F1EF11F0000EAB6F000EAA6F3AEF13F056
:10262800FB0EC11908E1C229D8B41DEF13F01FEF42
:1026380013F030EF13F0FA0EC11908E1C229D8B42B
:1026480028EF13F02AEF13F030EF13F0BDC028F095
:10265800BEC029F010EC32F0BDC01AF0BEC01BF0AD
:10266800FDEC28F0C1C0AAF0C2C0ABF0120020EE09
:1026780033F02250D9262350DA22DECF0DF0DECFF8
:102688000EF0DECF0FF0DECF10F020EE2FF022504C
:10269800D9262350DA22DECF11F0DECF12F0DECFBA
:1026A80013F0DECF14F0B9EC2AF00DC02CF00EC0F8
:1026B8002DF00FC02EF010C02FF020EE33F0225076
:1026C800D9262350DA22DECF0DF0DECF0EF0DECF92
:1026D8000FF0DECF10F020EE2FF02250D926235035
:1026E800DA22DECF11F0DECF12F0DECF13F0DECF2C
:1026F80014F0E4EC2BF00DC024F00EC025F00FC050
:1027080026F010C027F02F502E102D1009E1170EBB
:102718002C5CD8A092EF13F094EF13F06BEF14F049
:102728002F5008E12E04D8A09CEF13F09EEF13F071
:10273800A0EF13F06BEF14F024C034F025C035F08F
:1027480026C036F027C037F020EE2FF02250D926C9
:102758002350DA22DECF30F0DECF31F0DECF32F098
:10276800DECF33F0C2EF13F0D8903732363235323D
:102778003432D89033323232313230323350321030
:1027880007E1100E315CD8B0CCEF13F0CEEF13F0A8
:10279800B8EF13F03450351036103710D8B4D7EFDF
:1027A80013F0D9EF13F029EF14F030C016F031C050
:1027B80017F032C018F033C019F034C01AF035C021
:1027C8001BF036C01CF037C01DF0FFEC23F016C01C
:1027D80028F017C029F018C02AF019C02BF034C00F
:1027E8000DF035C00EF036C00FF037C010F028C01D
:1027F80011F029C012F02AC013F02BC014F0B9EC64
:102808002AF00DC034F00EC035F00FC036F010C0FD
:1028180037F030C00DF031C00EF032C00FF033C0C9
:1028280010F028C011F029C012F02AC013F02BC0F4
:1028380014F0B9EC2AF00DC030F00EC031F00FC022
:1028480032F010C033F039EF14F0000E346E000E81
:10285800356E000E366E000E376E020E306E000EAC
:10286800316E000E326E000E336E20EE02F02250F2
:10287800D9262350DA222CC0DEFF2DC0DDFF20EE42
:1028880004F02250D9262350DA2234C0DEFF35C0A6
:10289800DDFF20EE09F02250D9262350DA2230C07D
:1028A800DEFF31C0DDFF20EE13F02250D926235081
:1028B800DA223450351036103710D8B466EF14F0D9
:1028C80069EF14F0010E6AEF14F0000EDF6E1200CB
:1028D80068BE71EF14F073EF14F074EF14F069929E
:1028E80068BE81EF14F0685006E16704D8B07FEF46
:1028F80014F081EF14F087EF14F0000E396E010E1A
:10290800386E8BEF14F067C038F068C039F097C1A3
:102918003AF098C13BF028C03CF029C03DF02AC0ED
:102928003EF02BC03FF02CC040F02DC041F02EC02F
:1029380042F02FC043F0000E456E1F0E446E000E8D
:102948000201886F1EEF15F04406D8A04506690EEF
:102958004424D96E020E4520DA6E3CC00DF03DC00D
:102968000EF03EC00FF03FC010F040C011F041C063
:1029780012F042C013F043C014F00A0E156E000E98
:10298800166E000E176E000E186E000E196E000EF1
:102998001A6E000E1B6E000E1C6E09EC27F00DC09F
:1029A80030F00EC031F00FC032F010C033F011C05B
:1029B80034F012C035F013C036F014C037F0305080
:1029C800300FDF6E3806D8A039063A06D8A03B0685
:1029D8003CC00DF03DC00EF03EC00FF03FC010F0FF
:1029E80040C011F041C012F042C013F043C014F0CF
:1029F8000A0E156E000E166E000E176E000E186E7B
:102A0800000E196E000E1A6E000E1B6E000E1C6E64
:102A180011EC23F00DC03CF00EC03DF00FC03EF0AD
:102A280010C03FF011C040F012C041F013C042F096
:102A380014C043F044504510D8B425EF15F027EFE3
:102A480015F057EF15F03C503D103E103F10401068
:102A5800411042104310D8A434EF15F036EF15F0AA
:102A6800A8EF14F039BE43EF15F0395006E13804E9
:102A7800D8B041EF15F043EF15F0A8EF14F03BBEC6
:102A88004EEF15F03B5008E13A04D8A04EEF15F090
:102A980050EF15F057EF15F069B255EF15F057EFF5
:102AA80015F0A8EF14F026C019F027C01AF0690E27
:102AB80044241B6E020E45201C6E3AC01DF03BC01C
:102AC8001EF09CEC28F019C026F01AC027F012005E
:102AD800496E000E536E000E526E0101994B9A2BEF
:102AE800E80E995D030E9A59D8B07DEF15F07FEF87
:102AF80015F098EF15F0090EF66E7B0EF76E0800CC
:102B0800F5CF14F0050EF66E7B0EF76E0900F5CFC3
:102B180015F00900F5CF16F015C0D9FF16C0DAFF79
:102B28001450DF1268EF16F0090EF66E7B0EF76E82
:102B38000800F550FF0A146E050EF66E7B0EF76E50
:102B48000900F5CF15F00900F5CF16F015C0D9FF2B
:102B580016C0DAFF1450DF16000E9A6F000E996F38
:102B6800B50E176E524A532A170E5224D96E000E0C
:102B78005320DA6E620EDF6E524A532A170E522421
:102B8800D96E000E5320DA6E49C0DFFF524A532A2D
:102B9800170E5224D96E000E5320DA6E0FC0DFFFD5
:102BA800524A532A170E5224D96E000E5320DA6E59
:102BB80010C0DFFF524A532A170E5224D96E000E56
:102BC8005320DA6E1150DF6E524A532A000E4B6EB4
:102BD800000E4A6E02EF16F04A501224D96E4B507E
:102BE8001320DA6E170E5224E16E000E5320E26EA7
:102BF800DFCFE7FF524A532A4A4A4B2A10504A5C11
:102C080011504B58D8A00BEF16F00DEF16F0F0EF5F
:102C180015F0000E516E000E506E000E4D6E020E35
:102C28004C6E25EF16F0170E4C24D96E000E4D2071
:102C3800DA6EDF505124516E50505124506E4C4A78
:102C48004D2A52504C5C4D50800A146E5350800AE5
:102C58001458D8A032EF16F034EF16F017EF16F02C
:102C6800170E5224D96E000E5320DA6E51C0DFFFC2
:102C7800524A532A170E5224D96E000E5320DA6E88
:102C880050C0DFFF524A532A000E4F6E000E4E6EA0
:102C980059EF16F0170E4E24D96E000E4F20DA6E3B
:102CA800DF5015EC33F04E4A4F2A52504E5C4F50CD
:102CB800800A146E5350800A1458D8A066EF16F094
:102CC80068EF16F04EEF16F01200000E226E000E9E
:102CD800216E000E1B6E000E1A6E75EF16F0144A68
:102CE800152A010E206E14C0F6FF15C0F7FFF86A0A
:102CF800050EF76403D00800F55005D0F6CFE9FFBC
:102D0800F7CFEAFFEF50200AD8B48DEF16F08FEF17
:102D180016F0B6EF16F0F70E166EFF0E176E14C00B
:102D2800F6FF15C0F7FFF86A050EF76403D0080030
:102D3800F55005D0F6CFE9FFF7CFEAFFEF50186E50
:102D4800196A1650182617501922195009E1050E4C
:102D5800185CD8A0B2EF16F0B4EF16F0B6EF16F084
:102D6800000E206E20C01CF01D6A1C501D10D8A437
:102D7800C0EF16F0C2EF16F073EF16F0CCEF16F0B6
:102D8800000E1B6E010E1A6E144A152A17EF17F063
:102D980014C0F6FF15C0F7FFF86A050EF76403D0F4
:102DA8000800F55005D0F6CFE9FFF7CFEAFFEF505E
:102DB800166E176A1750000AD8B4E5EF16F017EF29
:102DC80017F016502B0AD8B4C8EF16F0060AD8B474
:102DD800C4EF16F017EF17F021C00DF022C00EF067
:102DE800000E106E0A0E0F6EC5EC32F014C0F6FF1E
:102DF80015C0F7FFF86A050EF76403D00800F55010
:102E080005D0F6CFE9FFF7CFEAFFEF50166E165060
:102E18000D5E000E0E5A300E0D24216E000E0E208F
:102E2800226EC8EF16F0D00E166EFF0E176E14C085
:102E3800F6FF15C0F7FFF86A050EF76403D008001F
:102E4800F55005D0F6CFE9FFF7CFEAFFEF50186E3F
:102E5800196A165018261750192219500AE10A0E35
:102E6800185CD8A03AEF17F03DEF17F0010E3EEFCF
:102E780017F0000E1E6E1F6A1E501F10D8A447EFD1
:102E880017F049EF17F0F0EF16F01A501B10D8A4FE
:102E980050EF17F052EF17F060EF17F021C016F05F
:102EA80022C017F0161E171E164A172A16C014F04D
:102EB80017C015F064EF17F021C014F022C015F008
:102EC80012002AEF18F0B50E0D180E10D8A46FEFE7
:102ED80017F071EF17F054EF18F0A52B54EF18F016
:102EE800620E0D180E10D8A47CEF17F07EEF17F0C5
:102EF80080EF17F071EF17F0000EA56F54EF18F080
:102F08000DC0A8F10D040E10D8B48DEF17F08FEF97
:102F180017F071EF17F0020E0D180E10D8B497EFD6
:102F280017F099EF17F071EF17F0040E0D180E1047
:102F3800D8B4A1EF17F0A3EF17F071EF17F0050E53
:102F48000D180E10D8B4ABEF17F0ADEF17F071EF06
:102F580017F0060E0D180E10D8B4B5EF17F0B7EF2E
:102F680017F071EF17F0090E0D180E10D8B4BFEF57
:102F780017F0C1EF17F071EF17F00A0E0D180E10C9
:102F8800D8B4C9EF17F0CBEF17F071EF17F00B0EAD
:102F98000D180E10D8B4D3EF17F0D5EF17F071EF66
:102FA80017F00D0E0D180E10D8B4DDEF17F0DFEF87
:102FB80017F071EF17F0100E0D180E10D8B4E7EFD8
:102FC80017F0E9EF17F071EF17F0130E0D180E1048
:102FD800D8B4F1EF17F0F3EF17F071EF17F0210EF7
:102FE8000D180E10D8B4FBEF17F0FDEF17F071EFC6
:102FF80017F0270E0D180E10D8B405EF18F007EFCC
:1030080018F071EF17F0280E0D180E10D8A40FEF56
:1030180018F011EF18F080EF17F071EF17F00DC0EE
:10302800A7F171EF17F00DC09BF10EC09CF171EF85
:1030380017F00DC09FF10EC0A0F19F51A06F9F6BBC
:103048009B519F139C51A01371EF17F00101A551DB
:103058000F6E106A1050000AD8B435EF18F054EF0C
:1030680018F00F50000AD8B467EF17F0010AD8B467
:1030780074EF17F0030AD8B484EF17F0010AD8B434
:1030880013EF18F0070AD8B417EF18F0010AD8B4EC
:103098001DEF18F0030AD8B480EF17F054EF18F0BA
:1030A8001200000E156E000E166E000E176E800EC2
:1030B800186E220EF66E7B0EF76E0800F550FF0AAA
:1030C800116E1E0EF66E7B0EF76E0900F5CF12F02C
:1030D8000900F5CF13F012C0D9FF13C0DAFF115061
:1030E800DF16040000F0FBEF18F015500D14116EF8
:1030F80016500E14126E17500F14136E1850101429
:10310800146E1150121013101410D8B48EEF18F05A
:1031180090EF18F0A9EF18F0270EF66E7B0EF76EF9
:103128000800F5CF11F0230EF66E7B0EF76E09003E
:10313800F5CF12F00900F5CF13F012C0D9FF13C074
:10314800DAFF1150DF12C1EF18F0270EF66E7B0E72
:10315800F76E0800F550FF0A116E230EF66E7B0E0F
:10316800F76E0900F5CF12F00900F5CF13F012C081
:10317800D9FF13C0DAFF1150DF16040000F0220E49
:10318800F66E7B0EF76E0800F5CF11F01E0EF66E88
:103198007B0EF76E0900F5CF12F00900F5CF13F09A
:1031A80012C0D9FF13C0DAFF1150DF12040000F07B
:1031B800220EF66E7B0EF76E0800F550FF0A116EB0
:1031C8001E0EF66E7B0EF76E0900F5CF12F00900A1
:1031D800F5CF13F012C0D9FF13C0DAFF1150DF1674
:1031E800040000F0D89018321732163215321550F4
:1031F800161017101810D8A404EF19F006EF19F0DC
:1032080079EF18F02C0EF66E7B0EF76E0800F5CFEE
:1032180011F0280EF66E7B0EF76E0900F5CF12F04E
:103228000900F5CF13F012C0D9FF13C0DAFF11500F
:10323800DF12040000F02C0EF66E7B0EF76E08000D
:10324800F550FF0A116E280EF66E7B0EF76E090018
:10325800F5CF12F00900F5CF13F012C0D9FF13C053
:10326800DAFF1150DF16190E0400E82EFDD7120000
:1032780019C0D9FF1AC0DAFFDE50DE10D8B447EF04
:1032880019F049EF19F01EEF1AF0030E216E000E27
:10329800226E000E236E000E246E20EE1EF01950D2
:1032A800D9261A50DA22DECF1BF0DDCF1CF0FF0E34
:1032B8001B141D6E0F0E1C141E6E1F6A206A030E4F
:1032C800D8901D361E361F362036E82E64EF19F0CA
:1032D8001D5021121E5022121F502312205024125A
:1032E80020EE1DF01950D9261A50DA22DF501B6E35
:1032F800030E1B161BC01CF01D6A1E6A1F6A0F0EE8
:10330800D8901C361D361E361F36E82E84EF19F06D
:103318001C5021121D5022121E5023121F5024121D
:1033280020EE1CF01950D9261A50DA22DF501B6EF5
:10333800010E1B161BC01CF01D6A1E6A1F6A120EA6
:10334800D8901C361D361E361F36E82EA4EF19F00D
:103358001C5021121D5022121E5023121F502412DD
:1033680020EE1BF01950D9261A50DA22DF501B6EB6
:10337800010E1B161BC01CF01D6A1E6A1F6A150E63
:10338800D8901C361D361E361F36E82EC4EF19F0AD
:103398001C5021121D5022121E5023121F5024129D
:1033A80020EE1AF01950D9261A50DA22DF501B6E77
:1033B800010E1B161BC01CF01D6A1E6A1F6A160E22
:1033C800D8901C361D361E361F36E82EE4EF19F04D
:1033D8001C5021121D5022121E5023121F5024125D
:1033E80020EE19F01950D9261A50DA22DF501B6E38
:1033F800010E1B161BC01CF01D6A1E6A1F6A170EE1
:10340800D8901C361D361E361F36E82E04EF1AF0EB
:103418001C5021121D5022121E5023121F5024121C
:1034280021C00DF022C00EF023C00FF024C010F010
:1034380055EC18F012000001B56F8D0E0001B86F41
:103448007A0EB96F190E0101D519D8A42EEF1AF00A
:1034580030EF1AF035EF1AF0650E0001B86F7A0EEA
:10346800B96F1A0E0101D519D8A43DEF1AF03FEF34
:103478001AF044EF1AF03D0E0001B86F7A0EB96FDA
:103488001B0E0101D519D8A44CEF1AF04EEF1AF013
:1034980053EF1AF0150E0001B86F7A0EB96F46ECAB
:1034A8001FF00001BA6F0101D2510001BA19D8A466
:1034B80060EF1AF062EF1AF06AEF1AF0B551D8B45B
:1034C80068EF1AF06AEF1AF0F3EF1AF0C90E956F69
:1034D8007B0E966FD5C197F0986BBAC099F09A6B2E
:1034E800BA51040DB8C0B3F0B9C0B4F0F350B32763
:1034F800F450B423B3C0F6FFB4C0F7FF0900F5CF0A
:103508009BF00900F5CF9CF00900F5CF9DF00A006B
:10351800F5CF9EF0B1EC32F0BAC0D2F1030E000143
:10352800B76FE80EB66F320EAB6F020EAC6FBA51C2
:10353800040DB8C0B3F0B9C0B4F0F350B327F450D9
:10354800B423B3C0F6FFB4C0F7FF0900F5CFADF060
:103558000900F5CFAEF00900F5CFAFF00A00F5CFBE
:10356800B0F058EC2BF0C6EF1AF0B607D8A0B707A2
:10357800020E0001B36FF20E0400E82EFDD7B32F40
:10358800FBD70400320E0D6E020E0E6ECFEC30F03B
:103598000D500E10D8A4D3EF1AF0D5EF1AF0DFEFC4
:1035A8001AF00001B651B711D8A4DDEF1AF0DFEF19
:1035B8001AF0B9EF1AF00001B7BFEDEF1AF0B751E2
:1035C80006E1B605D8B0EBEF1AF0EDEF1AF0F3EF1D
:1035D8001AF0450E956F7C0E966FB1EC32F0120022
:1035E800000E0001EC6F1D0EF66E7B0EF76E0800E4
:1035F800F5CFE9F0190EF66E7B0EF76E0900F5CFE0
:10360800EAF00900F5CFEBF0EAC0D9FFEBC0DAFF2A
:10361800DF50E9150009D8A414EF1BF017EF1BF0D1
:10362800010E18EF1BF0000EED6F0101D4510001DF
:10363800ED19D8B422EF1BF024EF1BF075EF1BF047
:10364800EDC0D4F1ED05D8A42CEF1BF02EEF1BF044
:1036580051EF1BF05F0E956F7F0E966FB1EC32F055
:10366800000E0101AE6F130EF66E7B0EF76E0800AA
:10367800F5CFE9F00F0EF66E7B0EF76E0900F5CF69
:10368800EAF00900F5CFEBF0EAC0D9FFEBC0DAFFAA
:103698000001E951DF1275EF1BF0930E956F7F0E55
:1036A800966FB1EC32F0010E0101AE6F130EF66E9B
:1036B8007B0EF76E0800F550FF0A0001E96F0F0E48
:1036C800F66E7B0EF76E0900F5CFEAF00900F5CF2C
:1036D800EBF0EAC0D9FFEBC0DAFFE951DF16010EC3
:1036E800EC6FE6C0DFF0E7C0E0F0E8C0E1F0800E84
:1036F800E26FEAEC32F00001EE6F0101D3510001F4
:10370800EE19D8B48AEF1BF08CEF1BF0BEEF1BF05C
:10371800EEB191EF1BF093EF1BF0A0EF1BF0EEB3AF
:1037280098EF1BF09AEF1BF0A0EF1BF00E0E956FB1
:103738007D0E966FB1EC32F00001EEA1A6EF1BF002
:10374800A8EF1BF0AEEF1BF04E0E956F7D0E966F37
:10375800B1EC32F00001EEA3B4EF1BF0B6EF1BF0B2
:10376800BCEF1BF0C80E956F7C0E966FB1EC32F073
:10377800EEC0D3F10001EC511200000E1E6E1CBE0B
:10378800CAEF1BF0C8EF1BF0DCEF1BF01C1E1B1E62
:103798001A1E191E181E171E161E156C000E16224C
:1037A8001722182219221A221B221C22010E1E6E11
:1037B80014BEE3EF1BF0E1EF1BF0F5EF1BF0141E56
:1037C800131E121E111E101E0F1E0E1E0D6C000E53
:1037D8000E220F2210221122122213221422010E6D
:1037E8001E1A20EE1FF0070EDE6AE806FDE21550ED
:1037F80016101710181019101A101B101C10D8B416
:1038080008EF1CF00AEF1CF05CEF1CF0010E1D6EB7
:1038180018EF1CF0D89015361636173618361936A4
:103828001A361B361C361D2A1CAE1DEF1CF01FEF66
:103838001CF00EEF1CF0D8901F36203621362236A9
:10384800233624362536263615500D5C16500E586C
:1038580017500F5818501058195011581A5012581C
:103868001B5013581C501458D8A03DEF1CF03FEFC4
:103878001CF050EF1CF015500D5E16500E5A1750E4
:103888000F5A1850105A1950115A1A50125A1B50E0
:10389800135A1C50145A1F80D8901C321B321A32EB
:1038A800193218321732163215321D2E1FEF1CF03E
:1038B8001E50D8B462EF1CF064EF1CF074EF1CF0DB
:1038C800261E251E241E231E221E211E201E1F6C9E
:1038D800000E2022212222222322242225222622EF
:1038E8001FC00DF020C00EF021C00FF022C010F054
:1038F80023C011F024C012F025C013F026C014F024
:1039080012000DC017F00EC018F011501210D8A4F4
:1039180090EF1CF092EF1CF094EF1CF03FEF1DF0BD
:1039280017C0D9FF18C0DAFF0FC0DFFF11501724E6
:10393800136E12501820146EFF0E1324D96EFF0E4A
:103948001420DA6E0FC0DFFF125007E1030E115C7E
:10395800D8B0B1EF1CF0B3EF1CF0B5EF1CF03FEF9F
:103968001DF020EE01F01750D9261850DA220FC0AA
:10397800DFFF20EE02F01750D9261850DA220FC0C8
:10398800DFFF11501724136E12501820146EFE0E0C
:103998001324D96EFF0E1420DA6E0FC0DFFF11500A
:1039A8001724136E12501820146EFD0E1324D96EAE
:1039B800FF0E1420DA6E0FC0DFFF125007E1070E6A
:1039C800115CD8B0EAEF1CF0ECEF1CF0EEEF1CF045
:1039D8003FEF1DF020EE03F01750D9261850DA22D9
:1039E8000FC0DFFF11501724136E12501820146EE9
:1039F800FC0E1324D96EFF0E1420DA6E0FC0DFFF01
:103A0800125007E1090E115CD8B00DEF1DF00FEF51
:103A18001DF011EF1DF03FEF1DF017C013F018C097
:103A280014F0131E141E134A142A030E1314156ED1
:103A3800166A15501726165018221550115E165082
:103A4800125AFC0E1116FF0E121636EF1DF017C093
:103A5800D9FF18C0DAFF0FC0DFFF1106D8A0120681
:103A6800174A182A11501210D8A43DEF1DF03FEF45
:103A78001DF02BEF1DF012000001F96F0001F95144
:103A8800E00FFB6F600EFB654CEF1DF04EEF1DF075
:103A980050EF1DF0000EFB6FF10E0D6E000E0E6E56
:103AA800000E106E000E0F6E000E126E080E116ED4
:103AB80085EC1CF0000E0001FD6F000EFC6FFD513F
:103AC800010DF3CF00F1F4CF01F1FB51080DF3CF55
:103AD80002F1F4CF03F1670E0101046F760E056F52
:103AE800000E066F02510425076F03510521086F68
:103AF800000E0621096F005107250A6F01510821A0
:103B08000B6F000E09210C6F0AC1F6FF0BC1F7FFFE
:103B18000CC1F8FF0800F5CF0DF1FCC00EF1010E45
:103B28000F6F0E2B9AEF1DF0D8900F370E2F98EFCE
:103B38001DF001010F510D150009D8A4A6EF1DF0C5
:103B4800A9EF1DF0010EAAEF1DF0000E0001FA6F9B
:103B5800070EFD19D8A4B3EF1DF0B5EF1DF0BFEFA8
:103B68001DF0F051D8B4BBEF1DF0BDEF1DF0BFEF55
:103B78001DF0010EFA6FFDC000F1FAC001F101015C
:103B8800002BC9EF1DF0D8900137002FC7EF1DF0AB
:103B9800F10E0001FC25D96EDA6A000EDA22010165
:103BA8000151DF120001FC2B070EFC65DEEF1DF052
:103BB800E0EF1DF063EF1DF0FD2B070EFD65E7EF4D
:103BC8001DF0E9EF1DF061EF1DF0F10EEA6F000E38
:103BD800EB6FEEC0ECF0EFC0EDF0D8EC32F0120075
:103BE800000E1E6E14BEFDEF1DF0FBEF1DF00FEF73
:103BF8001EF0141E131E121E111E101E0F1E0E1E66
:103C08000D6C000E0E220F221022112212221322F6
:103C18001422010E1E6E1CBE16EF1EF014EF1EF0CD
:103C280026EF1EF01C1E1B1E1A1E191E181E171E1C
:103C3800161E156C000E16221722182219221A2297
:103C48001B221C22155016101710181019101A10C4
:103C58001B101C10D8B433EF1EF035EF1EF07DEFAB
:103C68001EF0010E1D6E43EF1EF0D8901536163665
:103C78001736183619361A361B361C361D2A1CAE4E
:103C880048EF1EF04AEF1EF039EF1EF015500D5C9C
:103C980016500E5817500F581850105819501158E0
:103CA8001A5012581B5013581C501458D8A05FEFC4
:103CB8001EF061EF1EF071EF1EF015500D5E1650EC
:103CC8000E5A17500F5A1850105A1950115A1A50A4
:103CD800125A1B50135A1C50145AD8901C321B32BB
:103CE8001A32193218321732163215321D2E4AEF8F
:103CF8001EF01E50D8B483EF1EF085EF1EF095EF2E
:103D08001EF0141E131E121E111E101E0F1E0E1E54
:103D18000D6C000E0E220F221022112212221322E5
:103D280014220DC00DF00EC00EF00FC00FF010C021
:103D380010F011C011F012C012F013C013F014C02B
:103D480014F01200DFC0CBF0E0C0CCF0E1C0CDF041
:103D5800020E0001CE6F840ECF6F85EC30F0CBC021
:103D6800E3F0CCC0E4F00001E351E411D8A4BFEFC4
:103D78001EF0C1EF1EF029EF1FF0DFC0CBF0E0C04E
:103D8800CCF0E1C0CDF0050ECE6FE20ECF6F000E85
:103D9800D06FD8EC2EF0CBC0E3F0CCC0E4F000013B
:103DA800E351E411D8A4DBEF1EF0DDEF1EF029EF9C
:103DB8001FF0480EE213DFC0CBF0E0C0CCF0E1C04A
:103DC800CDF0050ECE6FE2C0CFF085EC30F0CBC061
:103DD800E3F0CCC0E4F00001E351E411D8A4F7EF1C
:103DE8001EF0F9EF1EF029EF1FF0DFC0CBF0E0C0A6
:103DF800CCF0E1C0CDF0040ECE6FE20ECF6F000E16
:103E0800D06FD8EC2EF0CBC0E3F0CCC0E4F00001CA
:103E1800E351E411D8A413EF1FF015EF1FF029EFB9
:103E28001FF0440EE213DFC0CBF0E0C0CCF0E1C0DD
:103E3800CDF0040ECE6FE2C0CFF085EC30F0CBC0F1
:103E4800E3F0CCC0E4F029EF1FF00001E351E411E6
:103E5800D8A431EF1FF033EF1FF03BEF1FF0430EF4
:103E6800956F7E0E966FB1EC32F045EF1FF0EB0EBA
:103E7800956F7C0E966FE3C097F0E4C098F0B1ECB4
:103E880032F01200D70EF66E7A0EF76E0800F5CFF4
:103E98000DF0D30EF66E7A0EF76E0900F5CF0EF020
:103EA8000900F5CF0FF00EC0D9FF0FC0DAFFDF50C1
:103EB8000D140009D8B463EF1FF066EF1FF0010E70
:103EC80067EF1FF0000E106ED20EF66E7A0EF76EC8
:103ED8000800F5CF0DF0CE0EF66E7A0EF76E0900DB
:103EE800F5CF0EF00900F5CF0FF00EC0D9FF0FC0C7
:103EF800DAFFDF500D140009D8B485EF1FF088EF02
:103F08001FF0010E89EF1FF0000E116ECD0EF66E38
:103F18007A0EF76E0800F5CF0DF0C90EF66E7A0E20
:103F2800F76E0900F5CF0EF00900F5CF0FF00EC0BF
:103F3800D9FF0FC0DAFFDF500D140009D8B4A7EF7E
:103F48001FF0AAEF1FF0010EABEF1FF0000E126E6C
:103F5800C80EF66E7A0EF76E0800F5CF0DF0C40E97
:103F6800F66E7A0EF76E0900F5CF0EF00900F5CF60
:103F78000FF00EC0D9FF0FC0DAFFDF500D14000993
:103F8800D8B4C9EF1FF0CCEF1FF0010ECDEF1FF032
:103F9800000E136E10C00DF0D8900D36D8900D3667
:103FA800D8900D3611C00EF0D8900E36D8900E3637
:103FB800125012240E100D1013101200000E186E5D
:103FC800000E176E12500DE1810E0F5C230E105873
:103FD800430E1158D8A0F3EF1FF0F5EF1FF0FEEFD6
:103FE8001FF06FEF20F0D8900F36103611361236CA
:103FF800174A182A12500BE1C10E0F5C910E105887
:10400800210E1158D8B00BEF20F00DEF20F01BEF68
:1040180020F018BE19EF20F0185009E1050E175CC2
:10402800D8A019EF20F01BEF20F0F7EF1FF0125087
:104038000DE1C10E0F5C910E1058210E1158D8A039
:1040480028EF20F02AEF20F06FEF20F018BE36EFAF
:1040580020F0185009E1050E175CD8A036EF20F0C3
:1040680038EF20F03AEF20F06FEF20F020EE33F039
:104078000D50D9260E50DA220FC0DEFF10C0DEFF29
:1040880011C0DEFF12C0DEFF20EE06F00D50D9266B
:104098000E50DA2210EE33F00D50E1260E50E222D7
:1040A800030EE3500BE1810EE65CEE0EE658360E89
:1040B800E658D8B062EF20F065EF20F0010E66EF09
:1040C80020F0000EDF6E20EE21F00D50D9260E50A4
:1040D800DA2217C0DFFF1200C30EF66E7A0EF76EF3
:1040E8000800F5CFEAF0BF0EF66E7A0EF76E0900FB
:1040F800F5CFEBF00900F5CFECF0EBC0D9FFECC041
:10410800DAFFDF500001EA150009D8A48EEF20F08D
:1041180091EF20F0010E92EF20F0000EEE6FD89094
:10412800EE37BE0EF66E7A0EF76E0800F5CFEAF09F
:10413800BA0EF66E7A0EF76E0900F5CFEBF00900AD
:10414800F5CFECF0EBC0D9FFECC0DAFFDF50EA1591
:104158000009D8A4B2EF20F0B5EF20F0010EB6EFB9
:1041680020F0000EEE13030EEE19D8A4BEEF20F0D7
:10417800C0EF20F0C2EF20F0180EED6F020EEE191E
:10418800D8A4C9EF20F0CBEF20F0CDEF20F0190E26
:10419800ED6FEE05D8A4D3EF20F0D5EF20F0D7EFE0
:1041A80020F01A0EED6FEE51D8A4DDEF20F0DFEF0E
:1041B80020F0E1EF20F01B0EED6F0101D551000159
:1041C800ED19D8B4EAEF20F0ECEF20F0FAEF20F088
:1041D800EDC0D5F1BB0EE46F010EE56F680EE66F1A
:1041E800D5C1E7F071EC27F00101D2691200B90ED0
:1041F800F66E7A0EF76E0800F5CFE2F0B50EF66EA1
:104208007A0EF76E0900F5CFE3F00900F5CFE4F078
:10421800E3C0D9FFE4C0DAFFDF500001E21500096E
:10422800D8A419EF21F01CEF21F0010E1DEF21F0A9
:10423800000EE56F7150E519D8B425EF21F027EF8E
:1042480021F082EF21F0E551D8B42DEF21F02FEFC6
:1042580021F050EF21F0F40E956F7E0E966FB1ECC1
:1042680032F0F50EF66E7A0EF76E0800F550FF0A7A
:104278000001E26FF10EF66E7A0EF76E0900F5CFC7
:10428800E3F00900F5CFE4F0E3C0D9FFE4C0DAFFBA
:10429800E251DF1680EF21F0DFC0CBF0E0C0CCF0B8
:1042A800E1C0CDF0000ECE6FC30ECF6F010ED06F00
:1042B800D8EC2EF0EC0E0001956F7D0E966FC3C101
:1042C80097F0986BB1EC32F0F50EF66E7A0EF76E49
:1042D8000800F5CFE2F0F10EF66E7A0EF76E0900DF
:1042E800F5CFE3F00900F5CFE4F0E3C0D9FFE4C06F
:1042F800DAFF0001E251DF12E5C071F0E55112006A
:1043080019C0D9FF1AC0DAFFDE50DE10D8B48FEF1B
:1043180021F091EF21F009EF22F0010E216E000E3D
:10432800226E000E236E000E246E20EE09F0195046
:10433800D9261A50DA22DECF1BF0DDCF1CF0FF0E93
:104348001B141D6E0F0E1C141E6E1F6A206A030EAE
:10435800D8901D361E361F362036E82EACEF21F0D9
:104368001D5021121E5022121F50231220502412B9
:1043780020EE07F01950D9261A50DA22DECF1BF0AA
:10438800DDCF1CF0FF0E1B141D6E0F0E1C141E6ECD
:104398001F6A206A0F0ED8901D361E361F3620362B
:1043A800E82ECFEF21F01D5021121E5022121F506F
:1043B80023122050241220EE06F01950D9261A5044
:1043C800DA22DF501B6E010E1B161BC01CF01D6A83
:1043D8001E6A1F6A1B0ED8901C361D361E361F36E5
:1043E800E82EEFEF21F01C5021121D5022121E5012
:1043F80023121F50241221C00DF022C00EF023C03A
:104408000FF024C010F055EC18F01200800E9B6ECF
:10441800F20ED36ED3A413EF22F015EF22F00EEFB5
:1044280022F0000E9D6E000EA06E73EC07F0800E59
:104438001A6E250E1B6E000E1C6E000E1D6EE0EC33
:104448002DF0A00E0001956F7C0E966FB1EC32F046
:10445800BB0E286E010E296EA00E2A6E860E2B6EDC
:10446800010E2C6E000E2D6EB8EC2FF0BB0E010164
:10447800826F010E836F3C0E846F8EEC22F0BB0EB0
:104488000001E66F010EE76F080EE86F11EC2AF0E5
:10449800BB0E0001E46F010EE56F680EE66F31ECAC
:1044A80026F0320E196E020E1A6E400E1B6E9C0E0E
:1044B8001C6E000E1D6E000E1E6E400E1F6E9C0EB2
:1044C800206E000E216E000E226E9DEC26F0320E3C
:1044D8000D6E020E0E6E050E0F6E010E106E000EA2
:1044E800126E010E116E60EC2FF0320E276E020E66
:1044F800286E000E2A6E010E296E5CEC29F0D09E03
:10450800F28CF28EFCEC32F09AEC32F086EF22F06C
:1045180007EF00F082C1CBF083C1CCF084C1CDF0AD
:1045280037EC31F0CBC085F1CCC086F10101855163
:104538008611D8B4A2EF22F0A4EF22F0AFEF22F058
:10454800A20E0001956F7D0E966FB1EC32F0000E51
:104558006F6E10EF23F082C1A3F183C1A4F184C16F
:1045680070F0190E0001956F7E0E966FB1EC32F067
:10457800010E6F6E890E0001E16F020EE26F000EF0
:10458800E46F1B0EE36F97EC31F0400E80EC32F0D5
:10459800000E14EC2EF0E30E0101106F7E0E116F69
:1045A800000E126F000E136F000E146F9FEC2BF0AD
:1045B800870E0101106F7F0E116F000E126F020E31
:1045C800136F000E146F9FEC2BF0240E0101106F77
:1045D8007F0E116F000E126F040E136F000E146F12
:1045E8009FEC2BF0330E0101106F7F0E116F000E40
:1045F800126F050E136F000E146F9FEC2BF0510E07
:104608000101106F7F0E116F000E126F060E136FEF
:10461800000E146F9FEC2BF0120020EE1DF0070E19
:10462800DE6AE806FDE2155016101710181019106A
:104638001A101B101C10D8B424EF23F026EF23F017
:1046480078EF23F0010E256E34EF23F0D89015365D
:1046580016361736183619361A361B361C36252ADA
:104668001CAE39EF23F03BEF23F02AEF23F0D8906C
:104678001D361E361F36203621362236233624367E
:1046880015500D5C16500E5817500F5818501058EA
:10469800195011581A5012581B5013581C501458BE
:1046A800D8A059EF23F05BEF23F06CEF23F01550FF
:1046B8000D5E16500E5A17500F5A1850105A1950AE
:1046C800115A1A50125A1B50135A1C50145A1D8052
:1046D800D8901C321B321A3219321832173216325D
:1046E8001532252E3BEF23F01DC00DF01EC00EF035
:1046F8001FC00FF020C010F021C011F022C012F02E
:1047080023C013F024C014F01200360EF66E7B0E90
:10471800F76E0800F5CFA5F0320EF66E7B0EF76E39
:104728000900F5CFA6F00900F5CFA7F0A6C0D9FF7C
:10473800A7C0DAFFDF500001A5150009D8A4A7EF2C
:1047480023F0AAEF23F0010EABEF23F0000EA86FC1
:104758007250A819D8B4B3EF23F0B5EF23F0FEEFE9
:1047680023F0A851D8A4BBEF23F0BDEF23F0DDEF71
:1047780023F06B0E956F7E0E966FB1EC32F0FF0E44
:10478800F66E7A0EF76E0800F5CFA5F0FB0EF66E02
:104798007A0EF76E0900F5CFA6F00900F5CFA7F05D
:1047A800A6C0D9FFA7C0DAFF0001A551DF12FCEFB0
:1047B80023F0140E956F7F0E966FB1EC32F0FF0E5A
:1047C800F66E7A0EF76E0800F550FF0A0001A56F25
:1047D800FB0EF66E7A0EF76E0900F5CFA6F009000B
:1047E800F5CFA7F0A6C0D9FFA7C0DAFFA551DF16FD
:1047F800A8C072F012004CEF24F016C01EF017C0CB
:104808001FF018C020F019C021F01A50165C1B5078
:1048180017581C5018581D501958D8B016EF24F0C6
:1048280018EF24F02AEF24F01AC016F01BC017F076
:104838001CC018F01DC019F01EC01AF01FC01BF0D4
:1048480020C01CF021C01DF04CEF24F01AC016F057
:104858001BC017F01CC018F01DC019F01EC00DF0C9
:104868001FC00EF020C00FF021C010F01AC011F0C8
:104878001BC012F01CC013F01DC014F0E4EC2BF0A8
:104888000DC01AF00EC01BF00FC01CF010C01DF0B8
:1048980016C00DF017C00EF018C00FF019C010F0B8
:1048A8001AC011F01BC012F01CC013F01DC014F088
:1048B800E4EC2BF00D500E100F101010D8A467EF79
:1048C80024F069EF24F001EF24F01AC016F01BC0A1
:1048D80017F01CC018F01DC019F01200176E9E9634
:1048E80013501410D8B47BEF24F07DEF24F080EF40
:1048F80024F0C58281EF24F0C580C40E0D6E090E28
:104908000E6E000E0F6E000E106EA6EC2DF00DC090
:1049180018F00EC019F018501910D8B496EF24F0FA
:1049280098EF24F09EEF24F018C011F019C012F08F
:10493800E3EF24F09E9611501210D8B4A6EF24F09D
:10494800A8EF24F0ADEF24F0D8801734C96EB0EF8B
:1049580024F017501724C96EC40E0D6E090E0E6E82
:10496800000E0F6E000E106EA6EC2DF00DC018F0A4
:104978000EC019F018501910D8B4C5EF24F0C7EFBD
:1049880024F0C9EF24F098EF24F015501610D8B48D
:10499800D0EF24F0D2EF24F0DFEF24F0C5ACD7EF4E
:1049A80024F0D9EF24F0DFEF24F0FF0E126EF90E99
:1049B800116EE3EF24F0000E126E000E116E12005D
:1049C8009E96C586C40E0D6E090E0E6E000E0F6EF5
:1049D800000E106EA6EC2DF00DC0A8F00EC0A9F0C8
:1049E8000001A851A911D8B4FCEF24F0FEEF24F07F
:1049F80004EF25F0A8C0A3F0A9C0A4F053EF25F058
:104A0800C5B609EF25F00BEF25F012EF25F0C7B07A
:104A180010EF25F012EF25F018EF25F0DB0E956F5B
:104A28007F0E966FB1EC32F0A3C0D9FFA4C0DAFFB5
:104A3800C9CFDFFF9E960001A551A611D8B427EF74
:104A480025F02BEF25F0A76BA72B2DEF25F0000104
:104A5800A76BA73BA747C550A719DF0BA719C56EBA
:104A6800C588C40E0D6E090E0E6E000E0F6E000E78
:104A7800106EA6EC2DF00DC0A8F00EC0A9F0000134
:104A8800A851A911D8B44BEF25F04DEF25F04FEF01
:104A980025F0FEEF24F0000EA46F000EA36F1200A5
:104AA8000DC014F00EC015F00FC016F010C017F0AE
:104AB8001106D8A01206112806E11228D8A467EF1B
:104AC80025F069EF25F076EF25F0000E0E6E000E4A
:104AD8000D6EC2EF25F0144A152A164A172A110638
:104AE800D8A0120614C0F6FF15C0F7FF0800F5504D
:104AF8000009D8B482EF25F084EF25F0B0EF25F057
:104B080016C0F6FF17C0F7FF0800F5500009D8B423
:104B180090EF25F092EF25F0B0EF25F0115012102C
:104B2800D8B499EF25F09BEF25F0B0EF25F014C02D
:104B3800F6FF15C0F7FF0800F5CF13F016C0F6FF13
:104B480017C0F7FF0800F5501318D8B4AEEF25F0DA
:104B5800B0EF25F06FEF25F014C0F6FF15C0F7FF92
:104B68000800F5CF13F016C0F6FF17C0F7FF0800CE
:104B7800F550135C0D6E0E6AD8A00E061200000EDA
:104B88000001E36F000EE26F0CEF26F0D9C0CBF006
:104B9800DAC0CCF0DBC0CDF0DCC0F6FFDDC0F7FF3B
:104BA800F86A050EF76403D00800F55005D0F6CF73
:104BB800E9FFF7CFEAFFEF500001CE6F010EDC25C9
:104BC800E06F000EDD21E16FE0C0F6FFE1C0F7FF06
:104BD800F86A050EF76403D00800F55005D0F6CF43
:104BE800E9FFF7CFEAFFEF500001CF6F85EC30F017
:104BF8000001CB51CC11D8B404EF26F006EF26F013
:104C080008EF26F0E24BE32B020EDC27000EDD2333
:104C1800DE07D8A0DF07DE2906E1DF29D8A417EFD1
:104C280026F019EF26F0CAEF25F0E3BF24EF26F0AF
:104C3800E35108E1E205D8A024EF26F026EF26F09C
:104C480030EF26F02E0E956F7D0E966FE2C097F02E
:104C5800E3C098F0B1EC32F01200E4C0CBF0E5C04C
:104C6800CCF0E6C0CDF037EC31F0CBC0E9F0CCC0E9
:104C7800EAF00001E951EA11D8A445EF26F047EF20
:104C880026F096EF26F0420E956F7F0E966FB1ECE8
:104C980032F0E4C0CBF0E5C0CCF0E6C0CDF0880E31
:104CA8000001CE6F800ECF6F85EC30F0010E000151
:104CB800E86FC30EE76FEC0E0400E82EFDD7E72F70
:104CC800FBD7E82FF9D7040000F004007A0E0001A2
:104CD800956F7F0E966FB1EC32F0E4C0D9F0E5C065
:104CE800DAF0E6C0DBF0DB0E0001DC6F790EDD6F79
:104CF800000EDF6F1D0EDE6FC3EC25F0140E0001F1
:104D0800E76F7D0E0400E82EFDD7E72FFBD70400E0
:104D1800E4C0D9F0E5C0DAF0E6C0DBF006EC2FF02D
:104D28009CEF26F0580E956F7E0E966FB1EC32F020
:104D3800120019C00DF01AC00EF0000E106E000E11
:104D48000F6E000E126E370E116E85EC1CF019C036
:104D5800D9FF1AC0DAFF010EDE6E000EDD6E20EEFE
:104D68002BF01950D9261A50DA221BC0DEFF1CC0BE
:104D7800DEFF1DC0DEFF1EC0DEFF20EE2FF0195043
:104D8800D9261A50DA221FC0DEFF20C0DEFF21C05C
:104D9800DEFF22C0DEFF2C0EF66E7B0EF76E0800DB
:104DA800F550FF0A236E280EF66E7B0EF76E09008B
:104DB800F5CF24F00900F5CF25F024C0D9FF25C090
:104DC800DAFF2350DF16310EF66E7B0EF76E080001
:104DD800F5CF23F02D0EF66E7B0EF76E0900F5CF9A
:104DE80024F00900F5CF25F024C0D9FF25C0DAFF4B
:104DF8002350DF1219C00DF01AC00EF066EC2AF02D
:104E0800320E0400E82EFDD71200155016101710A8
:104E1800181019101A101B101C10D8B416EF27F010
:104E280018EF27F060EF27F0010E1D6E26EF27F030
:104E3800D890153616361736183619361A361B36E0
:104E48001C361D2A1CAE2BEF27F02DEF27F01CEF88
:104E580027F015500D5C16500E5817500F58185063
:104E68001058195011581A5012581B5013581C50EA
:104E78001458D8A042EF27F044EF27F054EF27F05A
:104E880015500D5E16500E5A17500F5A1850105ADA
:104E98001950115A1A50125A1B50135A1C50145AAE
:104EA800D8901C321B321A32193218321732163285
:104EB80015321D2E2DEF27F00DC00DF00EC00EF08F
:104EC8000FC00FF010C010F011C011F012C012F096
:104ED80013C013F014C014F01200000E0001E86FA4
:104EE800000EE96F180EE719D8A47DEF27F07FEFC1
:104EF80027F083EF27F0F40EE86F010EE96F190E23
:104F0800E719D8A48AEF27F08CEF27F090EF27F065
:104F1800D60EE86F020EE96F1A0EE719D8A497EFBC
:104F280027F099EF27F09DEF27F0CC0EE86F020EDF
:104F3800E96F1B0EE719D8A4A4EF27F0A6EF27F016
:104F4800AAEF27F0C20EE86F020EE96FE851E911E7
:104F5800D8B4B1EF27F0B3EF27F0D5EF27F0E4C0CE
:104F6800D9F0E5C0DAF0E6C0DBF0E8C0DCF0E9C073
:104F7800DDF0000EDF6F050EDE6FC3EC25F0750E59
:104F88000001956F7C0E966FE7C097F0986BB1ECB7
:104F980032F0E4C0D9F0E5C0DAF0E6C0DBF006ECA8
:104FA8002FF0120019C0D9FF1AC0DAFFDE50DE1048
:104FB800D8B4E1EF27F0E3EF27F039EF28F0000E3F
:104FC800216E000E226E000E236E000E246E20EE5F
:104FD80004F01950D9261A50DA22DECF1BF0DDCFA3
:104FE8001CF0FF0E1B141D6E0F0E1C141E6E1F6A84
:104FF800206A030ED8901D361E361F362036E82E3E
:10500800FEEF27F01D5021121E5022121F502312AE
:105018002050241220EE02F01950D9261A50DA2214
:10502800DECF1BF0DDCF1CF01B501D6E1C501E6E1A
:105038001F6A206A0F0ED8901D361E361F3620367E
:10504800E82E1FEF28F01D5021121E5022121F506B
:1050580023122050241221C00DF022C00EF023C0CC
:105068000FF024C010F055EC18F01200000E126E6C
:1050780010BE43EF28F041EF28F049EF28F00F6CFD
:10508800101ED8B0102A010E126E0EBE50EF28F076
:105098004EEF28F056EF28F00D6C0E1ED8B00E2AF1
:1050A800010E121A000E146E000E136E0F5010101F
:1050B800D8B461EF28F063EF28F08BEF28F0010EE9
:1050C800116E6BEF28F0D8900F361036112A10AEFB
:1050D80070EF28F072EF28F067EF28F0D8901336B9
:1050E80014360F500D5C10500E58D8A07EEF28F0E3
:1050F80080EF28F085EF28F00F500D5E10500E5A03
:105108001380D89010320F32112E72EF28F01250FF
:10511800D8B491EF28F093EF28F097EF28F0136CAC
:10512800141ED8B0142A13C00DF014C00EF01200CB
:1051380069A0A1EF28F0A3EF28F0ADEF28F01BC07D
:1051480012F01CC013F019C014F01AC015F015ECB9
:1051580031F01EBEB2EF28F0B4EF28F0BAEF28F015
:105168001DC022F01EC023F0BEEF28F0000E236EF3
:10517800000E226E000E216E000E206ED0EF28F079
:10518800000E0F6E200E0E6E19C010F01AC011F02E
:105198001AEC33F0204A212A2250205C2150800A40
:1051A8001F6E2350800A1F58D8A0DDEF28F0DFEFCC
:1051B80028F0C4EF28F069B0E4EF28F0E6EF28F013
:1051C800F0EF28F01BC012F01CC013F019C014F047
:1051D8001AC015F015EC31F01BC00DF01CC00EF014
:1051E8005EEC30F022500D24196E23500E201A6EFA
:1051F8001200C69AC650F00B0809C66EC78EC79C27
:10520800000E0D6E120E0E6E7A0E0F6E000E106EE0
:1052180020EE04F01A50D9261B50DA22DECF1CF0FB
:10522800DECF1DF0DECF1EF0DECF1FF0020ED890CD
:105238001C361D361E361F36E82E1BEF29F01CC003
:1052480011F01DC012F01EC013F01FC014F0B9EC0D
:105258002AF0FF0E0D24246EFF0E0E20256EFF0E81
:105268000F20266EFF0E1020276E275026102510BF
:1052780009E17F0E245CD8A044EF29F046EF29F01D
:1052880050EF29F07F0E206E000E216E000E226E68
:10529800000E236E58EF29F024C020F025C021F01D
:1052A80026C022F027C023F020C0C8FFC68A1200FB
:1052B80027C0D9FF28C0DAFFDE50DE10D8A467EF78
:1052C80029F069EF29F06BEF29F0B8EF29F02950A0
:1052D8002A10D8B472EF29F074EF29F094EF29F06E
:1052E80020EE23F02750D9262850DA22000EDF6E50
:1052F80020EE28F02750D9262850DA22010EDF6E3A
:1053080020EE16F02750D9262850DA22000EDF6E3C
:1053180027C025F028C026F0AAEC30F0B8EF29F015
:1053280020EE23F02750D9262850DA22010EDF6E0E
:1053380020EE28F02750D9262850DA22000EDF6EFA
:1053480020EE16F02750D9262850DA22010EDF6EFB
:1053580027C019F028C01AF086EC10F027C019F001
:1053680028C01AF07EEC0AF01200000E126E0EBE73
:10537800C2EF29F0C0EF29F0C8EF29F00D6C0E1E1E
:10538800D8B00E2A010E126E10BECFEF29F0CDEF65
:1053980029F0D3EF29F00F6C101ED8B0102A0F5047
:1053A8001010D8B4DAEF29F0DCEF29F000EF2AF07A
:1053B800010E116EE4EF29F0D8900F361036112A3D
:1053C80010AEE9EF29F0EBEF29F0E0EF29F00F50EC
:1053D8000D5C10500E58D8A0F4EF29F0F6EF29F024
:1053E800FAEF29F00F500D5E10500E5AD890103277
:1053F8000F32112EEBEF29F01250D8B406EF2AF035
:1054080008EF2AF00CEF2AF00D6C0E1ED8B00E2A09
:105418000DC00DF00EC00EF01200E6C0CBF0E7C0D4
:10542800CCF0E8C0CDF037EC31F0CBC0EBF0CCC01D
:10543800ECF00001EB51EC11D8A425EF2AF027EF8E
:105448002AF05FEF2AF0040E956F7F0E966FB1EC8D
:1054580032F0E6C0DFF0E7C0E0F0E8C0E1F0A6EC2B
:105468001EF0020E0001EA6FE80EE96F510E04000B
:10547800E82EFDD7E92FFBD7EA2FF9D7040000F073
:105488000400E6C0DFF0E7C0E0F0E8C0E1F0FBECC4
:1054980020F00009D8A453EF2AF055EF2AF065EF61
:1054A8002AF0E6C0DFF0E7C0E0F0E8C0E1F0A6ECE3
:1054B8001EF065EF2AF02E0E956F7E0E966FB1ECFA
:1054C80032F0120020EE07F00D50D9260E50DA22E5
:1054D800010EDE6E000EDD6E20EE0CF00D50D926AA
:1054E8000E50DA22060EDF6E20EE12F00D50D9268D
:1054F8000E50DA22070EDF6E20EE0BF00D50D92683
:105508000E50DA22030EDF6E20EE15F00D50D9266C
:105518000E50DA22010EDF6E20EE20F00D50D92653
:105528000E50DA22010EDF6E20EE28F00D50D9263B
:105538000E50DA22010EDF6E20EE29F00D50D9262A
:105548000E50DA22030EDF6E20EE23F00D50D9261E
:105558000E50DA22010EDF6E20EE2AF00D50D92609
:105568000E50DA22010EDF6E1200000E156E000ECC
:10557800166E000E176E000E186E115012101310D2
:105588001410D8B4CAEF2AF0CCEF2AF002EF2BF0AF
:10559800010E196ED6EF2AF0D8901136123613364E
:1055A8001436192A14AEDBEF2AF0DDEF2AF0D0EF1B
:1055B8002AF0D890153616361736183611500D5C65
:1055C80012500E5813500F5814501058D8A0EFEF1F
:1055D8002AF0F1EF2AF0FAEF2AF011500D5E12507E
:1055E8000E5A13500F5A1450105A1580D89014326E
:1055F800133212321132192EDDEF2AF015C00DF0D8
:1056080016C00EF017C00FF018C010F012000DC031
:1056180015F00EC016F00FC017F010C018F01CEFF0
:105628002BF01106D8A01206154A162A174A182A6E
:1056380011501210D8B423EF2BF025EF2BF036EFD2
:105648002BF017C0D9FF18C0DAFF15C0E1FF16C04C
:10565800E2FFDE50E618D8B434EF2BF036EF2BF02B
:1056680015EF2BF011501210D8A43DEF2BF03FEF9F
:105678002BF045EF2BF0000E0E6E000E0D6E57EF5F
:105688002BF015C0D9FF16C0DAFFDF50136E17C014
:10569800D9FF18C0DAFFDF50146E1450135C0D6E7A
:1056A8000E6AD8A00E061200ABC0D9FFACC0DAFF54
:1056B800DE50DE10D8A463EF2BF065EF2BF067EF18
:1056C8002BF09EEF2BF0ADC08FF1AEC090F1AFC0C4
:1056D80091F1B0C092F1ABC00DF0ACC00EF0ADC00E
:1056E8000FF0AEC010F0AFC011F0B0C012F0E2EC95
:1056F8001FF0ABC0A3F0ACC0A4F03BEC0CF0ABC007
:1057080022F0ACC023F03BEC13F0000120EE23F0B4
:10571800AB51D926AC51DA22DF50D8A496EF2BF042
:1057280098EF2BF09EEF2BF0ABC025F0ACC026F025
:10573800AAEC30F01200000E0101156FCDEF2BF02E
:1057480001011551080DF35012250001EE6F13C128
:10575800EFF014C1F0F00101155110250001FE6FA2
:10576800000E010111210001FF6FFEC0F6FFFFC00E
:10577800F7FFF86A050EF76403D00800F55005D066
:10578800F6CFE9FFF7CFEAFFEF5040EC1DF001013B
:10579800152B10C10DF011C10EF05EEC30F00101B7
:1057A80015510001FE6FFF6B0D50FE5D0E50FF5945
:1057B800D8A0E1EF2BF0E3EF2BF0A4EF2BF01200D1
:1057C8001150121013101410D8B4EDEF2BF0EFEFA6
:1057D8002BF01FEF2CF0010E156EF9EF2BF0D8907F
:1057E8001136123613361436152A14AEFEEF2BF086
:1057F80000EF2CF0F3EF2BF011500D5C12500E5807
:1058080013500F5814501058D8A00DEF2CF00FEF6C
:105818002CF017EF2CF011500D5E12500E5A135049
:105828000F5A1450105AD8901432133212321132BF
:10583800152E00EF2CF00DC00DF00EC00EF00FC0AD
:105848000FF010C010F012000B0E1B6EAF0E0D6E95
:10585800010E0E6E000E106E000E0F6E000E126E10
:105868000C0E116E85EC1CF01B06AF0E1B24D96EB6
:10587800DA6A010EDA2219C00DF01AC00EF0000E15
:10588800106E0A0E0F6EB9EC29F00D50300FDF6E56
:1058980019C00DF01AC00EF0000E106E0A0E0F6E31
:1058A8003AEC28F00DC019F00EC01AF019501A1071
:1058B800D8A461EF2CF063EF2CF038EF2CF0AF0E8A
:1058C8001B24196E1A6A010E1A221200B8BC6FEF57
:1058D8002CF071EF2CF073EF2CF0ABEF2CF0AECF77
:1058E80005F0ABA47AEF2CF07CEF2CF07EEF2CF0D7
:1058F800ABEF2CF0ABA283EF2CF085EF2CF089EF07
:105908002CF0AB98AB88ABEF2CF0010E6B24036E38
:10591800000E6C20046E7F0E0314066E076A6D502D
:10592800061809E16E500718D8B49DEF2CF09FEFC8
:105938002CF0ABEF2CF0000E6B24D96E030E6C200C
:10594800DA6E05C0DFFF06C06BF007C06CF012000E
:1059580019C0D9FF1AC0DAFFDE50DE10D8B4B7EF8D
:105968002CF0B9EF2CF0EBEF2CF0050E206E000EAA
:10597800216E000E226E000E236E20EE2AF01950C2
:10598800D9261A50DA22DF501B6E030E1B161BC0D5
:105998001CF01D6A1E6A1F6A160ED8901C361D362A
:1059A8001E361F36E82ED1EF2CF01C5020121D5049
:1059B80021121E5022121F50231220C00DF021C0A8
:1059C8000EF022C00FF023C010F055EC18F01200B2
:1059D800180EF66E5F0EF76E000EF86E02EE89F086
:1059E80010EE57F00900F5CFEEFFE550E150FAE16F
:1059F800E60EF66E630EF76E000EF86E01EEC4F05A
:105A080010EE3AF00900F5CFEEFFE550E150FAE16B
:105A180003EE00F0D50EEE6AE806FDE102EE00F0B6
:105A2800890EEE6AE806FDE101EE87F03D0EEE6AAA
:105A3800E806FDE100EE67F00C0EEE6AE806FDE10F
:105A480073907392000EF86E00010AEF22F00600C0
:105A5800FACF08F0FBCF09F0D9CF0AF0DACF0BF074
:105A68009EAA39EF2DF03BEF2DF056EF2DF00101F6
:105A78008B518C11D8B443EF2DF045EF2DF056EF34
:105A88002DF08DC101F08EC102F002D856EF2DF035
:105A98000500FA6E8B51FD6E8C51FE6EF850FF6E4C
:105AA800FA501200F2A05BEF2DF05DEF2DF060EFE1
:105AB8002DF081CF0CF0F2900BC0DAFF0AC0D9FFAD
:105AC80009C0FBFF08C0FAFF73921100136E9E967F
