:020000040000FA
:0400000007EF00F016
:1000080072822EED30F032EF29F0020E0001CE1987
:10001800D8A40BD07050D8B406D0D551D8B403D0DA
:10002800E751D8A402D0000ECE6FCE51D8A483D009
:10003800010E56EC35F0A80E0001B26F7D0EB36FBD
:10004800000EB46F010EB56F000EB66FF0EC31F014
:10005800EB0EB26F7F0EB36F500EB46F010EB56F1B
:10006800000EB66FF0EC31F0410EB26F7E0EB36F3A
:10007800000EB46F020EB56F000EB66FF0EC31F0E3
:10008800D251D8B422D0D229D8B41FD0970EB26F8B
:100098007D0EB36F000EB46F030EB56F000EB66F12
:1000A800F0EC31F0D2C01AF01B6A00EC33F01AC041
:1000B800B2F01BC0B3F0300E0001B46F030EB56F81
:1000C800000EB66FF0EC31F00CD00E0EB26F7E0E53
:1000D800B36F000EB46F030EB56F000EB66FF0EC81
:1000E80031F0DB0EB26F7D0EB36F000EB46F040EED
:1000F800B56F000EB66FF0EC31F0CA0EB26F7D0E20
:10010800B36F000EB46F050EB56F000EB66FF0EC4E
:1001180031F0EC0EB26F7D0EB36F000EB46F060EA9
:10012800B56F000EB66FF0EC31F0010ECE6FDE69E0
:10013800DD69DC691200CE05D8A4B9D07050D8B4F6
:1001480006D0D551D8B403D0E751D8A4B0D0DE51E9
:10015800E719D8B424D0E751D8B40DD02E0EB26F19
:100168007F0EB36F580EB46F040EB56F000EB66FE6
:10017800F0EC31F012D0D9C01AF01B6A00EC33F061
:100188001AC0B2F01BC0B3F0580E0001B46F040ED1
:10019800B56F000EB66FF0EC31F0E7C0DEF0DD5160
:1001A800D519D8B41ED0D551D8B40DD0D90EB26F48
:1001B8007F0EB36F580EB46F050EB56F000EB66F95
:1001C800F0EC31F00CD0DE0EB26F7F0EB36F580E2C
:1001D800B46F050EB56F000EB66FF0EC31F0D5C0F8
:1001E800DDF0DC517018D8B41ED07050D8B40DD0E2
:1001F800D90EB26F7F0EB36F580EB46F060EB56F7F
:10020800000EB66FF0EC31F00CD0DE0EB26F7F0E40
:10021800B36F580EB46F060EB56F000EB66FF0ECE4
:1002280031F070C0DCF06E50D8B41200D151DF1933
:10023800D8B41200B90EB26F7D0EB36F000EB46F52
:10024800070EB56F000EB66FF0EC31F0D1C01AF0A2
:100258001B6A00EC33F01AC0B2F01BC0B3F0480EB2
:100268000001B46F070EB56F000EB66FF0EC31F0F9
:10027800D805D8A40DD0AD0EB26F7F0EB36F580E4F
:10028800B46F070EB56F000EB66FF0EC31F00CD0FE
:10029800BF0EB26F7F0EB36F580EB46F070EB56FF7
:1002A800000EB66FF0EC31F0D1C0DFF01200020E94
:1002B800CE19D8B415D0010E56EC35F0020E000157
:1002C800CE6FE369000E0201B76F000EB66F000132
:1002D800E069DF69E269000E0201616F000E526F8A
:1002E8000001E451020D310EF324F66E7A0EF4206B
:1002F800F76E0900F5CFBBF00A00F5CFBCF0D85176
:10030800E319D8A404D06E50E119D8B4EFD0D8516D
:10031800D8A444D06E50D8A441D0D751D8A40DD079
:10032800980EB26F7F0EB36F500EB46F000EB56F9C
:10033800000EB66FF0EC31F00CD06D0EB26F7E0E81
:10034800B36F500EB46F000EB56F000EB66FF0ECC1
:1003580031F0860EB26F7D0EB36F000EB46F050ECE
:10036800B56F000EB66FF0EC31F01F0EB26F7E0E57
:10037800B36F000EB46F060EB56F000EB66FF0ECDB
:1003880031F0860EB26F7D0EB36F000EB46F070E9C
:10039800B56F000EB66FF0EC31F0A0D06E50D8B447
:1003A80056D0D851D8A453D0E851D8B40DD0830E24
:1003B800B26F7F0EB36F500EB46F000EB56F000EA4
:1003C800B66FF0EC31F00CD0910EB26F7F0EB36FB8
:1003D800500EB46F000EB56F000EB66FF0EC31F032
:1003E800860EB26F7D0EB36F000EB46F050EB56F3B
:1003F800000EB66FF0EC31F0300EB26F7E0EB36FB8
:10040800000EB46F060EB56F000EB66FF0EC31F04B
:10041800FD0EB26F7D0EB36F000EB46F070EB56F91
:10042800000EB66FF0EC31F0D1C01AF01B6A00EC88
:1004380033F01AC0B2F01BC0B3F0600E0001B46F05
:10044800070EB56F000EB66FF0EC31F047D0E851EB
:10045800D8B40DD0830EB26F7F0EB36F500EB46F49
:10046800000EB56F000EB66FF0EC31F00CD0910EA7
:10047800B26F7F0EB36F500EB46F000EB56F000EE3
:10048800B66FF0EC31F0860EB26F7D0EB36F000ED2
:10049800B46F050EB56F000EB66FF0EC31F0860E36
:1004A800B26F7D0EB36F000EB46F060EB56F000EFF
:1004B800B66FF0EC31F0860EB26F7D0EB36F000EA2
:1004C800B46F070EB56F000EB66FF0EC31F0DF6950
:1004D800E269000E0201616F000E526FD8C0E3F0AE
:1004E8006E500001E119D8A46EC0E1F0200E02019F
:1004F8009719D8B42DD0970E0E6E020E0F6E8E0E71
:10050800106E020E116E000E136E090E126E3DEC87
:1005180033F00E500F10D8B41BD0970E0001B26FF5
:10052800020EB36F000EB46F010EB56F000EB66FFA
:10053800F0EC31F08E0E0E6E020E0F6E970E106EEE
:10054800020E116E000E136E090E126E24EC37F0B7
:100558000001BB510201B61906E10001BC510201BC
:10056800B719D8B44BD05F0E0001B26F7F0EB36FCE
:10057800000EB46F030EB56F000EB66FF0EC31F0DD
:10058800BBC01AF0BCC01BF000EC33F01AC0BDF0C1
:100598001BC0BEF0BDC00EF0BEC00FF089EC37F036
:1005A8000E5008080001BA6FBDC0B2F0BEC0B3F06B
:1005B800BA51080DF3CFB4F0030EB56F000EB66F45
:1005C800F0EC31F0E70EB26F7F0EB36F400EB46FF0
:1005D800030EB56F000EB66FF0EC31F0EF0EB26F90
:1005E8007F0EB36F600EB46F030EB56F000EB66F5B
:1005F800F0EC31F0BBC0B6F2BCC0B7F26D500001F0
:10060800E019D8B449D0C50EB26F7F0EB36F000E93
:10061800B46F040EB56F000EB66FF0EC31F01B0E20
:100628006D18D8A40DD0B30EB26F7F0EB36F300E15
:10063800B46F040EB56F000EB66FF0EC31F01ED03B
:100648006DC01AF01B6A00EC33F01AC0B2F01BC080
:10065800B3F0300E0001B46F040EB56F000EB66F24
:10066800F0EC31F0E30EB26F7F0EB36F400EB46F53
:10067800040EB56F000EB66FF0EC31F0EF0EB26FEE
:100688007F0EB36F600EB46F040EB56F000EB66FB9
:10069800F0EC31F06DC0E0F0D851D8B41200D1516F
:1006A800DF19D8A42BD0D651E219D8B403D0E85119
:1006B800D8A424D0610E0E6E020E0F6E7F0E106E3F
:1006C800020E116E000E136E0F0E126E3DEC33F01B
:1006D8000E500F10D8A412D0520E0E6E020E0F6ECE
:1006E800700E106E020E116E000E136E0F0E126E4B
:1006F8003DEC33F00E500F10D8B41200D40E0001A8
:10070800B26F7F0EB36F000EB46F050EB56F000E9B
:10071800B66FF0EC31F0D1C01AF01B6A00EC33F080
:100728001AC0BDF01BC0BEF0BDC00EF0BEC00FF0B9
:1007380089EC37F00E5008080001BA6F8F0EB26FBF
:100748007D0EB36F200EB46F050EB56F000EB66F39
:10075800F0EC31F0D1C01AF01B6A00EC33F01AC08B
:10076800B2F01BC0B3F00001BA51080DF3CFB4F0DA
:10077800050EB56F000EB66FF0EC31F0D651D8B457
:100788000DD08A0EB26F7F0EB36F500EB46F050E88
:10079800B56F000EB66FF0EC31F00CD0A60EB26F4C
:1007A8007F0EB36F500EB46F050EB56F000EB66FA7
:1007B800F0EC31F0CF0EB26F7F0EB36F000EB46F56
:1007C800060EB56F000EB66FF0EC31F07F0EB26F0B
:1007D800020EB36F300EB46F060EB56F000EB66F13
:1007E800F0EC31F0CA0EB26F7F0EB36F000EB46F2B
:1007F800070EB56F000EB66FF0EC31F0700EB26FE9
:10080800020EB36F280EB46F070EB56F000EB66FE9
:10081800F0EC31F0200E02017019D8B413D0200E7C
:100828007F19D8B40FD02EEC07F027C0B2F028C03B
:10083800B3F0480E0001B46F010EB56F000EB66F2D
:10084800F0EC31F0D1C0DFF0D6C0E2F0610E0E6EF0
:10085800020E0F6E7F0E106E020E116E000E136EDA
:100868000F0E126E24EC37F0520E0E6E020E0F6E43
:10087800700E106E020E116E000E136E0F0E126EB9
:1008880024EC37F012000F0EC112F19ECC0EF66E5A
:100898007B0EF76E0800F5CF13F0CA0EF66E7B0ECE
:1008A800F76E0900F5CFD9FF0900F5CFDAFF13502D
:1008B800DF12C70EF66E7B0EF76E0800F550FF0AC2
:1008C800136EC30EF66E7B0EF76E0900F5CF14F0AB
:1008D8000900F5CF15F014C0D9FF15C0DAFF135081
:1008E800DF16C70EF66E7B0EF76E0800F550FF0A8E
:1008F800136EC50EF66E7B0EF76E0900F5CFD9FFA5
:100908000900F5CFDAFF1350DF16C20EF66E7B0E24
:10091800F76E0800F550FF0A136EBE0EF66E7B0EDA
:10092800F76E0900F5CF14F00900F5CF15F014C0E3
:10093800D9FF15C0DAFF1350DF16C20EF66E7B0E14
:10094800F76E0800F550FF0A136EC00EF66E7B0EA8
:10095800F76E0900F5CFD9FF0900F5CFDAFF13507C
:10096800DF16BD0EF66E7B0EF76E0800F550FF0A17
:10097800136EB90EF66E7B0EF76E0900F5CF14F004
:100988000900F5CF15F014C0D9FF15C0DAFF1350D0
:10099800DF16BD0EF66E7B0EF76E0800F550FF0AE7
:1009A800136EBB0EF66E7B0EF76E0900F5CFD9FFFE
:1009B8000900F5CFDAFF1350DF16B80EF66E7B0E7E
:1009C800F76E0800F550FF0A136EB40EF66E7B0E34
:1009D800F76E0900F5CF14F00900F5CF15F014C033
:1009E800D9FF15C0DAFF1350DF16B80EF66E7B0E6E
:1009F800F76E0800F550FF0A136EB60EF66E7B0E02
:100A0800F76E0900F5CFD9FF0900F5CFDAFF1350CB
:100A1800DF16B30EF66E7B0EF76E0800F5CF13F0F7
:100A2800B10EF66E7B0EF76E0900F5CFD9FF0900FF
:100A3800F5CFDAFF1350DF12AE0EF66E7B0EF76EAF
:100A48000800F5CF13F0AA0EF66E7B0EF76E0900BC
:100A5800F5CF14F00900F5CF15F014C0D9FF15C073
:100A6800DAFF1350DF12AE0EF66E7B0EF76E08003B
:100A7800F5CF13F0AC0EF66E7B0EF76E0900F5CFCE
:100A8800D9FF0900F5CFDAFF1350DF12A90EF66E71
:100A98007B0EF76E0800F5CF13F0A50EF66E7B0EF1
:100AA800F76E0900F5CF14F00900F5CF15F014C062
:100AB800D9FF15C0DAFF1350DF12A90EF66E7B0EB0
:100AC800F76E0800F550FF0A136EA70EF66E7B0E40
:100AD800F76E0900F5CFD9FF0900F5CFDAFF1350FB
:100AE800DF169F0EF66E7B0EF76E0800F5CF13F03B
:100AF8009B0EF66E7B0EF76E0900F5CF14F0090019
:100B0800F5CF15F014C0D9FF15C0DAFF1350DF1266
:100B18009F0EF66E7B0EF76E0800F550FF0A136EF7
:100B28009D0EF66E7B0EF76E0900F5CFD9FF090012
:100B3800F5CFDAFF1350DF16950EF66E7B0EF76EC3
:100B48000800F5CF13F0910EF66E7B0EF76E0900D4
:100B5800F5CF14F00900F5CF15F014C0D9FF15C072
:100B6800DAFF1350DF12950EF66E7B0EF76E080053
:100B7800F550FF0A136E930EF66E7B0EF76E0900A2
:100B8800F5CFD9FF0900F5CFDAFF1350DF168B0E2A
:100B9800F66E7B0EF76E0800F5CF13F0870EF66E33
:100BA8007B0EF76E0900F5CF14F00900F5CF15F0AC
:100BB80014C0D9FF15C0DAFF1350DF128B0EF66E82
:100BC8007B0EF76E0800F550FF0A136E890EF66E5D
:100BD8007B0EF76E0900F5CFD9FF0900F5CFDAFFD4
:100BE8001350DF16810EF66E7B0EF76E0800F5CFF8
:100BF80013F07F0EF66E7B0EF76E0900F5CFD9FF66
:100C08000900F5CFDAFF1350DF127C0EF66E7B0E6B
:100C1800F76E0800F5CF13F07A0EF66E7B0EF76EBE
:100C28000900F5CFD9FF0900F5CFDAFF1350DF121D
:100C3800FEEC22F06D0EF66E7B0EF76E0800F5CF17
:100C480013F06B0EF66E7B0EF76E0900F5CFD9FF29
:100C58000900F5CFDAFF1350DF126D0EF66E7B0E2A
:100C6800F76E0800F5CF13F0690EF66E7B0EF76E7F
:100C78000900F5CF14F00900F5CF15F014C0D9FF1D
:100C880015C0DAFF1350DF12680EF66E7B0EF76E92
:100C98000800F5CF13F0660EF66E7B0EF76E0900AE
:100CA800F5CFD9FF0900F5CFDAFF1350DF12680E30
:100CB800F66E7B0EF76E0800F5CF13F0640EF66E35
:100CC8007B0EF76E0900F5CF14F00900F5CF15F08B
:100CD80014C0D9FF15C0DAFF1350DF12630EF66E89
:100CE8007B0EF76E0800F5CF13F0610EF66E7B0EE3
:100CF800F76E0900F5CFD9FF0900F5CFDAFF1350D9
:100D0800DF12630EF66E7B0EF76E0800F5CF13F058
:100D18005F0EF66E7B0EF76E0900F5CF14F0090032
:100D2800F5CF15F014C0D9FF15C0DAFF1350DF1244
:100D38005E0EF66E7B0EF76E0800F5CF13F05C0EB4
:100D4800F66E7B0EF76E0900F5CFD9FF0900F5CFD7
:100D5800DAFF1350DF125E0EF66E7B0EF76E080098
:100D6800F5CF13F05A0EF66E7B0EF76E0900F5CF2D
:100D780014F00900F5CF15F014C0D9FF15C0DAFF3B
:100D88001350DF12590EF66E7B0EF76E0800F5CF82
:100D980013F0570EF66E7B0EF76E0900F5CFD9FFEC
:100DA8000900F5CFDAFF1350DF12590EF66E7B0EED
:100DB800F76E0800F5CF13F0550EF66E7B0EF76E42
:100DC8000900F5CF14F00900F5CF15F014C0D9FFCC
:100DD80015C0DAFF1350DF12540EF66E7B0EF76E55
:100DE8000800F5CF13F0520EF66E7B0EF76E090071
:100DF800F5CFD9FF0900F5CFDAFF1350DF12540EF3
:100E0800F66E7B0EF76E0800F5CF13F0500EF66EF7
:100E18007B0EF76E0900F5CF14F00900F5CF15F039
:100E280014C0D9FF15C0DAFF1350DF124F0EF66E4B
:100E38007B0EF76E0800F5CF13F04D0EF66E7B0EA5
:100E4800F76E0900F5CFD9FF0900F5CFDAFF135087
:100E5800DF121200300E296EEB0E2A6E7051640DEF
:100E6800F3CF2BF0F4CF2CF071510A0DF3502B2651
:100E7800F4502C2272512B26000E2C2229502B269E
:100E88002A502C222BC04DF02CC04EF04F6A506ACD
:100E9800F00E296EFD0E2A6E74510A0DF3CF2BF059
:100EA800F4CF2CF075512B26000E2C2229502B261E
:100EB8002A502C222BC051F02CC052F0536A546A8D
:100EC80051C00EF052C00FF053C010F054C011F0D2
:100ED800640E126E000E136E000E146E000E156E68
:100EE8005AEC34F00EC051F00FC052F010C053F05D
:100EF80011C054F0F00E296EFD0E2A6E02017751D2
:100F08000A0DF3CF2BF0F4CF2CF078512B26000EDE
:100F18002C2229502B262A502C222B5051262C507B
:100F28005222000E5322000E542251C00EF052C01D
:100F38000FF053C010F054C011F0640E126E000E82
:100F4800136E000E146E000E156E5AEC34F00EC0BF
:100F58001AF00FC01BF010C01CF011C01DF03C0EA1
:100F68001E6E000E1F6E000E206E000E216EBFEC6E
:100F780032F01AC051F01BC052F01CC053F01DC013
:100F880054F04DC00EF04EC00FF04FC010F050C0DE
:100F980011F0100E126E270E136E000E146E000E56
:100FA800156E5AEC34F051500E244D6E52500F20ED
:100FB8004E6E535010204F6E54501120506E570EE5
:100FC80002017919D8A408D0501E4F1E4E1E4D6C30
:100FD800000E4E224F225022400E4D26770E4E22F2
:100FE8001B0E4F22000E5022F00E296EFD0E2A6EA7
:100FF8007F510A0DF3CF2BF0F4CF2CF080512B2624
:10100800000E2C2229502B262A502C222BC055F0BA
:101018002CC056F0576A586AF00E296EFD0E2A6EDB
:1010280082510A0DF3CF2BF0F4CF2CF083512B26ED
:10103800000E2C2229502B262A502C222BC059F086
:101048002CC05AF05B6A5C6A59C00EF05AC00FF0A7
:101058005BC010F05CC011F0640E126E000E136ECF
:10106800000E146E000E156E5AEC34F00EC059F0D6
:101078000FC05AF010C05BF011C05CF0F00E296E82
:10108800FD0E2A6E020185510A0DF3CF2BF0F4CF25
:101098002CF086512B26000E2C2229502B262A5064
:1010A8002C222B5059262C505A22000E5B22000E5F
:1010B8005C2259C00EF05AC00FF05BC010F05CC043
:1010C80011F0640E126E000E136E000E146E000EF8
:1010D800156E5AEC34F00EC01AF00FC01BF010C099
:1010E8001CF011C01DF03C0E1E6E000E1F6E000E8F
:1010F800206E000E216EBFEC32F01AC059F01BC0F2
:101108005AF01CC05BF01DC05CF055C00EF056C014
:101118000FF057C010F058C011F0100E126E270EC5
:10112800136E000E146E000E156E5AEC34F0595002
:101138000E24556E5A500F20566E5B501020576E75
:101148005C501120586E530E02018719D8A408D09C
:10115800581E571E561E556C000E562257225822EE
:10116800A00E5526BB0E56220D0E5722000E5822F1
:101178004DC00EF04EC00FF04FC010F050C011F02F
:101188003C0E126E000E136E000E146E000E156EDD
:101198005AEC34F00EC02DF00FC02EF010C02FF016
:1011A80011C030F02DC01AF02EC01BF02FC01CF05B
:1011B80030C01DF0000E1E6E1B0E1F6EB70E206E87
:1011C800000E216EBFEC32F01AC031F01BC032F0B5
:1011D8001CC033F01DC034F031C00EF032C00FF027
:1011E80033C010F034C011F0000E126EE50E136E0D
:1011F800480E146EFF0E156E5AEC34F02D500E2466
:10120800356E2E500F20366E2F501020376E30500E
:101218001120386E35C01AF036C01BF037C01CF0EC
:1012280038C01DF0800E1E6E4F0E1F6E120E206EFF
:10123800000E216EBFEC32F01AC039F01BC03AF034
:101248001CC03BF01DC03CF055C00EF056C00FF05E
:1012580057C010F058C011F03C0E126E000E136EFD
:10126800000E146E000E156E5AEC34F00EC03DF0F0
:101278000FC03EF010C03FF011C040F03DC01AF062
:101288003EC01BF03FC01CF040C01DF0800E1E6E1B
:101298008D0E1F6E5B0E206E000E216EBFEC32F0BD
:1012A8001AC041F01BC042F01CC043F01DC044F0FE
:1012B80041C00EF042C00FF043C010F044C011F01E
:1012C800800E126E720E136EA40E146EFF0E156E43
:1012D8005AEC34F03D500E24456E3E500F20466EB9
:1012E8003F501020476E40501120486E45C01AF0FC
:1012F80046C01BF047C01CF048C01DF0C00E1E6E53
:10130800270E1F6E090E206E000E216EBFEC32F004
:101318001AC049F01BC04AF01CC04BF01DC04CF06D
:101328003150410F0201ED6F3950300FEF6F39C066
:101338000EF03AC00FF03BC010F03CC011F0800E28
:10134800126EB00E136EED0E146EFF0E156E5AEC83
:1013580034F035500E241A6E36500F201B6E37505D
:1013680010201C6E385011201D6E500E1E6EC30EBC
:101378001F6E000E206E000E216EBFEC32F01A5068
:10138800410F0201F16F4150410FEE6F4950300F8C
:10139800F06F49C00EF04AC00FF04BC010F04CC0BF
:1013A80011F0400E126ED80E136EF60E146EFF0E6C
:1013B800156E5AEC34F045500E241A6E46500F2024
:1013C8001B6E475010201C6E485011201D6EA80E31
:1013D8001E6E610E1F6E000E206E000E216EBFEC99
:1013E80032F01A50410F0201F26F000EF36FED0E4A
:1013F800276E020E286E12004E50D96EDA6ADECFC2
:10140800F6FFDDCFF7FF0800F550250AD8A4AED2C5
:101418004E50D96EDA6ADE2A000EDD22000E000177
:10142800C66F000EC56FC5C067F0C6C068F06568B6
:101438006668000E836F000E13D067804E50D96E19
:10144800DA6ADE2A000EDD222DD06782F7D767849C
:10145800F5D76786F3D76788F1D7000E836F010E3B
:10146800826F20D04E50D96EDA6ADECFF6FFDDCF1C
:10147800F7FF0800F550506E516A5150000AD8A481
:10148800ECD75050200AD8B4E4D7030AD8B4E3D72D
:10149800080AD8B4DCD7060AD8B4CFD71D0AD8B4FE
:1014A800D4D7DBD782518311D8B4DCD767B0679221
:1014B8004E50D96EDA6ADECFF6FFDDCFF7FF0800AF
:1014C800F5502A0AD8A41AD04E50D96EDA6ADE2A04
:1014D800000EDD224F50D96EDA6A020EDF26DF5C7D
:1014E800D96EDA6ADECFC5F0DECFC6F0C6AF3DD022
:1014F8006780C56DC61FD8B0C62B37D04E50D96E81
:10150800DA6ADECF1BF0DDCF1CF057EC21F01BC0F0
:10151800C5F01CC0C6F006D04E50D96EDA6ADE2A75
:10152800000EDD22D00E506EFF0E516E4E50D96E59
:10153800DA6ADECFF6FFDDCFF7FF0800F550526E0E
:10154800536A5050522651505322535006E10A0E06
:10155800525CD8B002D0010E01D0000E0001846F99
:10156800856B84518511D8A4D7D74E50D96EDA6AC5
:10157800DECFF6FFDDCFF7FF0800F550640AD8B4D8
:101588000CD04E50D96EDA6ADECFF6FFDDCFF7FF0A
:101598000800F550690AD8A436D04E50D96EDA6AD8
:1015A800DE2A000EDD224F50D96EDA6ADF50DF2ABC
:1015B800DF2AD96EDA6ADECF86F0DDCF87F0000E3B
:1015C80087BFFF0E886F896F8A6F8B6F8C6F8D6FE7
:1015D8004CC028F04DC029F086C02AF087C02BF0F7
:1015E80088C02CF089C02DF08AC02EF08BC02FF057
:1015F8008CC030F08DC031F0EDEC18F028C04CF004
:1016080029C04DF012004E50D96EDA6ADECF0EF0C6
:10161800DDCF0FF0F60E106E7F0E116E000E136EFA
:10162800020E126E42EC2EF00E500F10D8B415D0E8
:101638004E50D96EDA6ADECF0EF0DDCF0FF0F90E1C
:10164800106E7F0E116E000E136E020E126E42ECBB
:101658002EF00E500F10D8A455D04E50D96EDA6A1D
:10166800020EDE26000EDD224F50D96EDA6ADFCF79
:1016780050F0040EDF265050D96EDA6ADECF51F0F2
:10168800DECF52F0DECF53F0DECF54F051C055F02C
:1016980052C056F053C057F054C058F0596A58BE5B
:1016A800596859C05AF059C05BF059C05CF055C030
:1016B80086F056C087F057C088F058C089F059C0E6
:1016C8008AF05AC08BF05BC08CF05CC08DF04CC0C7
:1016D80028F04DC029F086C02AF087C02BF088C0BA
:1016E8002CF089C02DF08AC02EF08BC02FF08CC052
:1016F80030F08DC031F0EDEC18F028C04CF029C066
:101708004DF012004E50D96EDA6ADECFF6FFDDCF0B
:10171800F7FF0800F550730AD8A421D04E50D96EAF
:10172800DA6ADE2A000EDD224F50D96EDA6A020E1E
:10173800DF26DF5CD96EDA6ADECF80F0DECF81F09B
:101748004CC013F04DC014F080C015F081C016F0E5
:1017580056EC24F013C04CF014C04DF012004E505B
:10176800D96EDA6ADECFF6FFDDCFF7FF0800F55055
:10177800780AD8B40CD04E50D96EDA6ADECFF6FFAC
:10178800DDCFF7FF0800F550580AD8A444D04E50D2
:10179800D96EDA6ADECFF6FFDDCFF7FF0800F5CFA6
:1017A80096F04E50D96EDA6ADE2A000EDD224F50CE
:1017B800D96EDA6ADF50DF2ADF2AD96EDA6ADECF1D
:1017C80050F0DDCF51F050C08EF051C08FF00001C5
:1017D800906B916B926B936B946B956B4CC025F0EF
:1017E8004DC026F08EC027F08FC028F090C029F099
:1017F80091C02AF092C02BF093C02CF094C02DF029
:1018080095C02EF096C02FF00EEC1AF025C04CF0C3
:1018180026C04DF012004E50D96EDA6ADECF0EF0B7
:10182800DDCF0FF0FC0E106E7F0E116E000E136EE2
:10183800020E126E42EC2EF00E500F10D8B415D0D6
:101848004E50D96EDA6ADECF0EF0DDCF0FF0F30E10
:10185800106E7F0E116E000E136E020E126E42ECA9
:101868002EF00E500F10D8A455D04E50D96EDA6A0B
:10187800DECF50F0DDCF51F0010E5026000E512280
:1018880050C0F6FF51C0F7FF0800F5CF96F04E5054
:10189800D96EDA6A020EDE26000EDD224F50D96EAE
:1018A800DA6ADFCF50F0040EDF265050D96EDA6ABC
:1018B800DECF51F0DECF52F0DECF53F0DECF54F062
:1018C800515000018E6F52508F6F5350906F54508B
:1018D800916F926B936B946B956B4CC025F04DC0D8
:1018E80026F08EC027F08FC028F090C029F091C054
:1018F8002AF092C02BF093C02CF094C02DF095C024
:101908002EF096C02FF00EEC1AF025C04CF026C031
:101918004DF012004E50D96EDA6ADECFF6FFDDCFF9
:10192800F7FF0800F550250AD8A415D04E50D96EF7
:10193800DA6ADE2A000EDD22000E106E250E0F6E0A
:101948004CC011F04DC012F05BEC3AF0000E4D6E39
:10195800010E4C6E12004E50D96EDA6ADE2A000E65
:10196800DD22000E4D6E000E4C6E12004E50D96EE8
:10197800DA6ADECFF6FFDDCFF7FF0800F5500F6E0D
:10198800106A4CC011F04DC012F05BEC3AF04E50AA
:10199800D96EDA6ADE2A000EDD22D8D7B0EC34F030
:1019A8000E50406E0F50416E1050426E1150436EF3
:1019B800446A456A466A476A40C00EF041C00FF063
:1019C80042C010F043C011F044C012F045C013F0FB
:1019D80046C014F047C015F0E80E166E030E176ED9
:1019E800000E186E000E196E000E1A6E000E1B6E99
:1019F800000E1C6E000E1D6E38EC32F00EC040F06A
:101A08000FC041F010C042F011C043F012C044F0C2
:101A180013C045F014C046F015C047F040C00EF0A2
:101A280041C00FF042C010F043C011F044C012F0A2
:101A380045C013F046C014F047C015F0DAC016F0E0
:101A4800DBC017F0186A196A1A6A1B6A1C6A1D6AD1
:101A5800B2EC23F00EC040F00FC041F010C042F0CD
:101A680011C043F012C044F013C045F014C046F052
:101A780015C047F040C00EF041C00FF042C010F052
:101A880043C011F044C012F045C013F046C014F032
:101A980047C015F016C216F017C217F0186A196A6F
:101AA8001A6A1B6A1C6A1D6A38EC32F00EC040F0D4
:101AB8000FC041F010C042F011C043F012C044F012
:101AC80013C045F014C046F015C047F040C00EF0F2
:101AD80041C00FF042C010F043C011F044C012F0F2
:101AE80045C013F046C014F047C015F0FEC116F00B
:101AF800FFC117F0186A196A1A6A1B6A1C6A1D6AFC
:101B080038EC32F00EC040F00FC041F010C042F087
:101B180011C043F012C044F013C045F014C046F0A1
:101B280015C047F040C00EF041C00FF042C010F0A1
:101B380043C011F044C012F045C013F046C014F081
:101B480047C015F014C216F015C217F0186A196AC2
:101B58001A6A1B6A1C6A1D6AB2EC23F00EC040F0B8
:101B68000FC041F010C042F011C043F012C044F061
:101B780013C045F014C046F015C047F040C00EF041
:101B880041C00FF042C010F043C011F044C012F041
:101B980045C013F046C014F047C015F0FCC116F05C
:101BA800FDC117F0186A196A1A6A1B6A1C6A1D6A4D
:101BB800B2EC23F00EC040F00FC041F010C042F06C
:101BC80011C043F012C044F013C045F014C046F0F1
:101BD80015C047F06D500E6E0F6A106A116A126ACE
:101BE800136A146A156A000E166ECA0E176E9A0EDC
:101BF800186E3B0E196E000E1A6E000E1B6E000E4C
:101C08001C6E000E1D6E38EC32F00EC034F00FC0A2
:101C180035F010C036F011C037F012C038F013C0DC
:101C280039F014C03AF015C03BF03450405E3550DE
:101C3800415A3650425A3750435A3850445A39500C
:101C4800455A3A50465A3B50475A40C00EF041C098
:101C58000FF042C010F043C011F044C012F045C06C
:101C680013F046C014F047C015F0E80E166E030EC8
:101C7800176E000E186E000E196E000E1A6E000E0A
:101C88001B6E000E1C6E000E1D6EB2EC23F00EC013
:101C980040F00FC041F010C042F011C043F012C034
:101CA80044F013C045F014C046F015C047F040C0DA
:101CB8000EF041C00FF042C010F043C011F044C014
:101CC80012F045C013F046C014F047C015F0860E58
:101CD800166E010E176E000E186E000E196E000EAD
:101CE8001A6E000E1B6E000E1C6E000E1D6E38EC78
:101CF80032F00EC040F00FC041F010C042F011C0E9
:101D080043F012C044F013C045F014C046F015C0AB
:101D180047F047BE1BD047504610451044104310AB
:101D28004210411003E14004D8A010D0F40E402620
:101D3800010E4122000E4222000E4322000E4422D0
:101D4800000E4522000E4622000E0FD00C0E402633
:101D5800FE0E4122FF0E4222FF0E4322FF0E4422B6
:101D6800FF0E4522FF0E4622FF0E472240C00EF00E
:101D780041C00FF042C010F043C011F044C012F04F
:101D880045C013F046C014F047C015F0E80E166EB3
:101D9800030E176E000E186E000E196E000E1A6EE6
:101DA800000E1B6E000E1C6E000E1D6EB2EC23F0B2
:101DB8000EC02CF00FC02DF010C02EF011C02FF067
:101DC80012C030F013C031F014C032F015C033F037
:101DD800010E2C243C6E000E2D203D6E000E2E2090
:101DE8003E6E000E2F203F6E3CC028F03DC029F00B
:101DF8003EC02AF03FC02BF012001AC0D9FF1BC00A
:101E0800DAFFDE50DE10D8B41200020E226E000E89
:101E1800236E000E246E000E256E20EE18F01A5068
:101E2800D9261B50DA22DF501C6E010E1C161CC06E
:101E38001DF01E6A1F6A206A030ED8901D361E36D2
:101E48001F362036E82EF9D71D5022121E502312B5
:101E58001F5024122050251220EE17F01A50D926B0
:101E68001B50DA22DF501C6E010E1C161CC01DF020
:101E78001E6A1F6A206A040ED8901D361E361F3649
:101E88002036E82EF9D71D5022121E5023121F505B
:101E980024122050251220EE16F01A50D9261B5075
:101EA800DA22DF501C6E010E1C161CC01DF01E6AC3
:101EB8001F6A206A050ED8901D361E361F3620363A
:101EC800E82EF9D71D5022121E5023121F5024123B
:101ED8002050251220EE15F01A50D9261B50DA2270
:101EE800DF501C6E010E1C161CC01DF01E6A1F6AF6
:101EF800206A060ED8901D361E361F362036E82E6C
:101F0800F9D71D5022121E5023121F5024122050A0
:101F1800251220EE14F01A50D9261B50DA22DF5071
:101F28001C6E010E1C161CC01DF01E6A1F6A206A5A
:101F3800070ED8901D361E361F362036E82EF9D7E4
:101F48001D5022121E5023121F50241220502512F9
:101F580020EE13F01A50D9261B50DA22DF501C6EDF
:101F6800010E1C161CC01DF01E6A1F6A206A1FC0C5
:101F780020F01EC01FF01DC01EF01D6A1D50221249
:101F88001E5023121F5024122050251220EE12F04A
:101F98001A50D9261B50DA22DF501C6E0F0E1C1661
:101FA8001CC01DF01E6A1F6A206A090ED8901D36D3
:101FB8001E361F362036E82EF9D71D5022121E5025
:101FC80023121F5024122050251220EE11F01A500F
:101FD800D9261B50DA22DF501C6E010E1C161CC0BD
:101FE8001DF01E6A1F6A206A0D0ED8901D361E3617
:101FF8001F362036E82EF9D71D5022121E50231204
:102008001F5024122050251220EE0FF01A50D92606
:102018001B50DA22DECF1CF0DDCF1DF0FF0E1C14A2
:102028001E6E030E1D141F6E206A216A0E0ED890B4
:102038001E361F3620362136E82EF9D71E502212BA
:102048001F502312205024122150251220EE0EF08A
:102058001A50D9261B50DA22DF501C6E010E1C16AE
:102068001CC01DF01E6A1F6A206A1DC020F01F6A6E
:102078001E6A1D6A1D5022121E5023121F50241260
:102088002050251220EE0DF01A50D9261B50DA22C6
:10209800DF501C6E010E1C161CC01DF01E6A1F6A44
:1020A800206A190ED8901D361E361F362036E82EA7
:1020B800F9D71D5022121E5023121F5024122050EF
:1020C800251220EE0CF01A50D9261B50DA22DF50C8
:1020D8001C6E070E1C161CC01DF01E6A1F6A206AA3
:1020E8001A0ED8901D361E361F362036E82EF9D720
:1020F8001D5022121E5023121F5024122050251248
:1021080020EE0BF01A50D9261B50DA22DF501C6E35
:10211800030E1C161CC01DF01E6A1F6A206A1D0EC5
:10212800D8901D361E361F362036E82EF9D71D509A
:1021380022121E5023121F5024122050251222C092
:102148000EF023C00FF024C010F025C011F0F9ECF8
:102158001DF01200000E396E000E3A6E000E3B6E36
:10216800000E3C6E1CC03DF01DC03EF03D503E10C0
:10217800D8B459D13DC0D9FF3EC0DAFFDF50D8B43A
:1021880052D102D03D4A3E2A3DC0D9FF3EC0DAFFB7
:10219800DF503F6E010E316E200E3F18D8B413D0B9
:1021A800F70E236EFF0E246E3F50256E266A2350CD
:1021B800252624502622265004E1050E255CD8A0A9
:1021C80002D0000E316E31C02BF02C6A2B502C102F
:1021D800D8A4D8D7000E376E000E326E000E386EB7
:1021E8002D0E3F18D8A40BD0010E376E3D4A3E2A5B
:1021F8003DC0D9FF3EC0DAFFDF503F6E04D02B0E42
:102208003F18D8B4F3D7300E3F18D8A430D03D4A81
:102218003E2A3DC0D9FF3EC0DAFFDF503F6E205056
:102228002110D8B405D0100E20182110D8A415D02C
:10223800780E3F18D8B404D0580E3F18D8A40DD043
:10224800000E216E100E206E3D4A3E2A3DC0D9FF79
:102258003EC0DAFFDF503F6E0AD0010E326E2050CA
:102268002110D8A404D0000E216E080E206E205034
:102278002110D8A404D0000E216E0A0E206E225020
:10228800D8B414D03750D8A408D0FF0E336EFF0E40
:10229800346EFF0E356E7F0E07D0000E336E000EC3
:1022A800346E000E356E800E366E04D03368346896
:1022B8003568366839C027F03AC028F03BC029F0A5
:1022C8003CC02AF09F0E236EFF0E246E3F50256EF1
:1022D800266A200E2512000E261223502526245089
:1022E8002622265006E11A0E255CD8B002D0010E2F
:1022F80001D0000E2D6E2E6A2D502E10D8B409D0A4
:102308003FC014F0156A6FEC36F01450C90F3F6ED9
:102318001CD0D00E236EFF0E246E3F50256E266A09
:102328002350252624502622265006E10A0E255C35
:10233800D8B002D0010E01D0000E2F6E306A2F5097
:102348003010D8B462D0300E3F5E3F50236E246AFE
:102358002050235C2450800A256E2150800A25587D
:10236800D8B053D03850D8A445D020C00EF021C0E2
:102378000FF0000E0FBEFF0E106E116E39C012F076
:102388003AC013F03BC014F03CC015F05AEC34F0DE
:102398003F500E24396E000E0F203A6E000E1020AA
:1023A8003B6E000E11203C6E2750395C28503A587D
:1023B80029503B582A503C58D8A00DD02250D8B4A8
:1023C80019D03950335C3A5034583B5035583C504A
:1023D8003658D8B00FD033C039F034C03AF035C0D1
:1023E8003BF036C03CF0000E0201AD6F220EAC6F20
:1023F800010E386E3D4A3E2A3DC0D9FF3EC0DAFF85
:10240800DF503F6E010E326E55D73850D8A40BD02E
:102418003750D8B408D03C1E3B1E3A1E396C000E0B
:102428003A223B223C221E501F10D8B40FD0325003
:10243800D8A404D01CC03DF01DC03EF01EC0D9FF7A
:102448001FC0DAFF3DC0DEFF3EC0DDFF39C01CF013
:102458003AC01DF03BC01EF03CC01FF0120020EE39
:1024680013F03F50D9264050DA22000EDF6E20EEDE
:1024780009F03F50D9264050DA22A00EDE6E0F0E2A
:10248800DD6E20EE33F03F50D9264050DA22030E9D
:10249800DB501FE1700EDE5C640EDE58080EDE585D
:1024A800D8B017D020EE33F03F50D9264050DA226A
:1024B800DECF41F0DECF42F0DECF43F0DECF44F096
:1024C800030ED8904136423643364436E82EF9D7C3
:1024D80027D020EE33F03F50D9264050DA22030EA1
:1024E800DB5026E1E00EDE5CC80EDE58100EDE582A
:1024F800D8B01ED020EE33F03F50D9264050DA2213
:10250800DECF41F0DECF42F0DECF43F0DECF44F045
:10251800020ED8904136423643364436E82EF9D773
:102528004150536E4250546E4350556E445016D02D
:1025380020EE33F03F50D9264050DA22DECF41F06A
:10254800DECF42F0DECF43F0DECF44F0D890413406
:10255800536E4234546E4334556E4434566E576A43
:10256800586A596A5A6A100E166E270E176E000EB0
:10257800186E000E196E000E1A6E000E1B6E000EFD
:102588001C6E000E1D6E53C00EF054C00FF055C0E7
:1025980010F056C011F057C012F058C013F059C0CF
:1025A80014F05AC015F038EC32F00EC026F00FC007
:1025B80027F010C028F011C029F012C02AF013C06B
:1025C8002BF014C02CF015C02DF020EE2FF03F504A
:1025D800D9264050DA22DECF41F0DECF42F0DECFFE
:1025E80043F0DECF44F041502E6E42502F6E4350E0
:1025F800306E4450316E326A336A346A356A4FEC51
:102608002BF026C05BF027C05CF028C05DF029C025
:102618005EF02AC05FF02BC060F02CC061F02DC0C6
:1026280062F05BC026F05CC027F05DC028F05EC099
:1026380029F05FC02AF060C02BF061C02CF062C0A6
:102648002DF0100E2E6E270E2F6E000E306E000E1F
:10265800316E000E326E000E336E000E346E000EB8
:10266800356E4FEC2BF026C041F027C042F028C051
:1026780043F029C044F02AC045F02BC046F02CC0D6
:1026880047F02DC048F041C049F042C04AF043C06D
:102698004BF044C04CF020EE02F03F50D926405099
:1026A800DA2249C0DEFF4AC0DDFF20EE02F03F50CB
:1026B800D9264050DA22DECF41F0DDCF42F041C0CA
:1026C8000EF042C00FF0106A116AF00E126ED80EAA
:1026D800136EFF0E146EFF0E156E5AEC34F05B503D
:1026E8000E244D6E5C500F204E6E5D5010204F6EC4
:1026F8005E501120506E030E116EE80E106E20EE23
:1027080009F03F50D9264050DA22DECF0EF0DDCF57
:102718000FF004EC35F00EC015F00FC016F04DC0E8
:1027280017F04EC018F0D9EC39F015C051F016C0AA
:1027380052F051C00EF052C00FF0000E116E0A0E8A
:10274800106E04EC35F020EE04F03F50D9264050CE
:10275800DA220EC0DEFF0FC0DDFF1200000E0101FD
:10276800F56F46C00EF047C00FF089EC37F00F50F8
:1027780004E1140E0E5CD8A0120046C00EF047C04B
:102788000FF089EC37F00F5005E1650E0E5CD8B0FC
:10279800120001D0120046C0D9FF47C0DAFFDF504F
:1027A8000101F16F010EF26F09D0F2514624D96E82
:1027B800000E4720DA6EDF50F11BF22BFD0E486E3B
:1027C800FF0E496E46C00EF047C00FF089EC37F097
:1027D80048500E2649500F220101F2514A6E4B6AA9
:1027E8000E504A5C0F504B58D8A0DFD746C00EF0A9
:1027F80047C00FF089EC37F046C048F047C049F0B1
:102808000E5048260F504922FE0E4824406EFF0EF7
:102818004920416E000E426E000E436E000E456E5A
:10282800100E446EEFEC38F040500101F06FF1519A
:10283800F019D8A4120020EE02F04650D9264750CD
:10284800DA22470EDE18D8A4120020EE03F0465014
:10285800D9264750DA22470EDE18D8A4120020EEF7
:1028680004F04650D9264750DA22410EDE18D8A483
:10287800120046C0F6F147C0F7F1F6C10EF0F7C1F5
:102888000FF0000E116E2C0E106EBAEC38F00EC060
:10289800F3F10FC0F4F10101F351F411D8B44AD0A7
:1028A800F551100D000EF3240E6E010EF4200F6E7C
:1028B800000E116E000E106E000E136E100E126ECA
:1028C800F4EC24F00101F551100D000EF3240E6E06
:1028D800010EF4200F6EF6C110F0F7C111F0F65199
:1028E800F35D126EF751F459136E24EC37F00101C1
:1028F800F52B010EF325F66F000EF421F76F46C095
:102908000EF047C00FF089EC37F046C048F047C0DA
:1029180049F00E5048260F50492248500101F65DF3
:102928004950F759D8B006D00E0EF56501D002D03F
:102938000400A3D710C197F211C198F23A0E020110
:10294800996F12C19AF213C19BF23A0E9C6F14C18F
:102958009DF215C19EF2000E9F6F310E01016019A4
:10296800D8B40FD0320E6019D8B40BD0000E0001C5
:10297800D86F000ED16F000E02017F6F000E706FCE
:102988001200010E0001D86F700E1B6E010E1C6E36
:1029980057EC21F01B500001D16F7F0E0E6E020E16
:1029A8000F6E200E106E010E116E000E136E020EC9
:1029B800126E24EC37F0640E0201816F820E0E6EE7
:1029C800020E0F6E220E106E010E116E000E136EA7
:1029D800050E126E24EC37F030C187F2000E0201AA
:1029E800886F700E0E6E020E0F6E400E106E010E86
:1029F800116E000E136E030E126E24EC37F0640E87
:102A08000201736F740E0E6E020E0F6E430E106E7F
:102A1800010E116E000E136E050E126E24EC37F0C7
:102A280050C179F2000E02017A6F1200A4C0D9FFDA
:102A3800A5C0DAFFDE50DE10D8B41200000EB26F67
:102A4800000EB36F000EB46F000EB56FD805D8A492
:102A580019D0D751D8A416D0E805D8A413D0D2ECF1
:102A68000CF028C0B2F029C0B3F02AC0B4F02BC0D3
:102A7800B5F00001B251A65FB351A75BB451A85B92
:102A8800B551A95BA95108E14C0EA65DAE0EA75938
:102A98000A0EA859D8A00AD0A95108E1750EA65D5A
:102AA800AE0EA7590A0EA859D8A016D0D60E976F01
:102AB8007C0E986FA6C099F0A7C09AF0A8C09BF0AA
:102AC800A9C09CF0B2C09DF0B3C09EF0B4C09FF006
:102AD800B5C0A0F030EC3AF0A6C0A8F2A7C0A9F2A1
:102AE800A8C0AAF2A9C0ABF2000120EE2BF0A451B5
:102AF800D926A551DA22400EDE6E9C0EDE6E000E3F
:102B0800DE6E000EDD6E20EE33F0A451D926A551FD
:102B1800DA22A6C0DEFFA7C0DEFFA8C0DEFFA9C07C
:102B2800DEFF20EE06F0A451D926A551DA22010EC7
:102B3800DF6E20EE33F0A451D926A551DA22030E18
:102B4800DB5010E1700EDE5C640EDE58080EDE58B5
:102B5800D8B008D020EE21F0A451D926A551DA2208
:102B6800030E20D020EE33F0A451D926A551DA2245
:102B7800030EDB5010E1E00EDE5CC80EDE58100ECE
:102B8800DE58D8B008D020EE21F0A451D926A5519E
:102B9800DA22020E07D020EE21F0A451D926A55141
:102BA800DA22010EDF6E20EE0FF0A451D926A551CE
:102BB800DA22050EDE6E000EDD6E20EE2BF0A4513B
:102BC800D926A551DA22DECF1AF0DECF1BF0DECFF0
:102BD8001CF0DECF1DF020EE0FF0A451D926A55130
:102BE800DA22DECFAAF0DDCFABF0AAC01EF0ABC070
:102BF8001FF0206A216ABFEC32F0000120EE2FF0AE
:102C0800A451D926A551DA221AC0DEFF1BC0DEFF67
:102C18001CC0DEFF1DC0DEFF20EE0EF0A451D92639
:102C2800A551DA22000EDF6E20EE0DF0A451D92650
:102C3800A551DA22000EDF6E20EE19F0A451D92634
:102C4800A551DA22000EDF6E20EE0FF0A451D9262E
:102C5800A551DA22DECFAAF0DDCFABF0AAC012F080
:102C6800ABC013F0146A156A400E0E6E9C0E0F6E00
:102C7800000E106E000E116EB6EC2BF00EC0AEF00A
:102C88000FC0AFF010C0B0F011C0B1F020EE22F0CC
:102C9800A451D926A551DA22AEC00EF0AFC00FF06C
:102CA800B0C010F0B1C011F07D0E126E000E136EA0
:102CB800000E146E000E156EB6EC2BF00E28DF6EAB
:102CC800A4C03FF0A5C040F033EC12F0000120EEA4
:102CD80023F0A451D926A551DA22DF50D8A4120036
:102CE800A4C026F0A5C027F0B9EC36F012001AC02F
:102CF800D9FF1BC0DAFFDE50DE10D8B41200040E74
:102D0800216E000E226E000E236E000E246E20EE41
:102D180029F01A50D9261B50DA22DF501C6E030EF8
:102D28001C161CC01DF01E6A1F6A206A030ED8906C
:102D38001D361E361F362036E82EF9D71D502112B3
:102D48001E5022121F5023122050241220EE28F069
:102D58001A50D9261B50DA22DF501C6E010E1C16A1
:102D68001CC01DF01E6A1F6A206A050ED8901D3609
:102D78001E361F362036E82EF9D71D5021121E5058
:102D880022121F5023122050241220EE27F01A502E
:102D9800D9261B50DA22DF501C6E030E1C161CC0ED
:102DA8001DF01E6A1F6A206A060ED8901D361E3650
:102DB8001F362036E82EF9D71D5021121E50221238
:102DC8001F5023122050241220EE26F01A50D92624
:102DD8001B50DA22DF501C6E010E1C161CC01DF0A1
:102DE8001E6A1F6A206A1FC020F01EC01FF01DC087
:102DF8001EF01D6A1D5021121E5022121F50231250
:102E08002050241220EE25F01A50D9261B50DA2221
:102E1800DF501C6E010E1C161CC01DF01E6A1F6AB6
:102E2800206A090ED8901D361E361F362036E82E29
:102E3800F9D71D5021121E5022121F502312205064
:102E4800241220EE24F01A50D9261B50DA22DF5023
:102E58001C6E010E1C161CC01DF01E6A1F6A206A1B
:102E68000A0ED8901D361E361F362036E82EF9D7A2
:102E78001D5021121E5022121F50231220502412BE
:102E880020EE23F01A50D9261B50DA22DF501C6E90
:102E9800010E1C161CC01DF01E6A1F6A206A0B0E4C
:102EA800D8901D361E361F362036E82EF9D71D500D
:102EB80021121E5022121F5023122050241220EEDD
:102EC80022F01A50D9261B50DA22DF501C6E1CC083
:102ED8001DF01E6A1F6A206A0C0ED8901D361E3619
:102EE8001F362036E82EF9D71D5021121E50221207
:102EF8001F5023122050241220EE21F01A50D926F8
:102F08001B50DA22DF501C6E070E1C161CC01DF069
:102F18001E6A1F6A206A140ED8901D361E361F3688
:102F28002036E82EF9D71D5021121E5022121F50AC
:102F380023122050241220EE20F01A50D9261B50BC
:102F4800DA22DF501C6E010E1C161CC01DF01E6A12
:102F58001F6A206A170ED8901D361E361F36203677
:102F6800E82EF9D71D5021121E5022121F5023128D
:102F78002050241221C00EF022C00FF023C010F000
:102F880024C011F0F9EC1DF01200D751D8B412008A
:102F9800590EF66E7B0EF76E0800F5CFBBF0550E96
:102FA800F66E7B0EF76E0900F5CFBCF00900F5CF81
:102FB800BDF0BCC0D9FFBDC0DAFFDF50BB150009AA
:102FC800D8A41200540EF66E7B0EF76E0800F5CFEB
:102FD800BBF0500EF66E7B0EF76E0900F5CFBCF015
:102FE8000900F5CFBDF0BCC0D9FFBDC0DAFFDF5086
:102FF800BB150009D8A412001FEC26F00001BE6F13
:10300800040EBE611200BE516FEC3AF00001BE51D1
:1030180097EC2EF0A90EF66E7B0EF76E0800F550B1
:10302800FF0A0001BB6FA50EF66E7B0EF76E090056
:10303800F5CFBCF00900F5CFBDF0BCC0D9FFBDC0CD
:10304800DAFFBB51DF169F0EF66E7B0EF76E080097
:10305800F550FF0ABB6F9B0EF66E7B0EF76E0900EC
:10306800F5CFBCF00900F5CFBDF0BCC0D9FFBDC09D
:10307800DAFFBB51DF16950EF66E7B0EF76E080071
:10308800F550FF0ABB6F910EF66E7B0EF76E0900C6
:10309800F5CFBCF00900F5CFBDF0BCC0D9FFBDC06D
:1030A800DAFFBB51DF168B0EF66E7B0EF76E08004B
:1030B800F550FF0ABB6F870EF66E7B0EF76E0900A0
:1030C800F5CFBCF00900F5CFBDF0BCC0D9FFBDC03D
:1030D800DAFFBB51DF16010E0001BC6FC30EBB6FD8
:1030E800EC0E0400E82EFDD7BB2FFBD7BC2FF9D779
:1030F800040000F00400A90EF66E7B0EF76E0800BF
:10310800F5CFBBF0A50EF66E7B0EF76E0900F5CF76
:10311800BCF00900F5CFBDF0BCC0D9FFBDC0DAFFD7
:103128000001BB51DF129F0EF66E7B0EF76E080092
:10313800F5CFBBF09B0EF66E7B0EF76E0900F5CF50
:10314800BCF00900F5CFBDF0BCC0D9FFBDC0DAFFA7
:10315800BB51DF12950EF66E7B0EF76E0800F5CFA9
:10316800BBF0910EF66E7B0EF76E0900F5CFBCF042
:103178000900F5CFBDF0BCC0D9FFBDC0DAFFBB5117
:10318800DF128B0EF66E7B0EF76E0800F5CFBBF0E4
:10319800870EF66E7B0EF76E0900F5CFBCF00900BE
:1031A800F5CFBDF0BCC0D9FFBDC0DAFFBB51DF12FF
:1031B800010E0001BC6FC30EBB6FEC0E0400E82EBD
:1031C800FDD7BB2FFBD7BC2FF9D7040000F00400B4
:1031D80021D72AC042F02BC043F02CC044F02DC0A8
:1031E80045F02EC046F02FC047F030C048F031C03F
:1031F80049F049AE02D0010E01D0000E406E416A7E
:1032080040504110D8B410D0491E481E471E461ED3
:10321800451E441E431E426C000E43224422452292
:10322800462247224822492266AE679266BE05D0EA
:10323800665008E16504D8B005D0000E3D6E010E59
:103248003C6E04D065C03CF066C03DF0C5C03EF0A1
:10325800C6C03FF040504110D8A402D067A403D0A4
:103268003E06D8A03F06000E4B6E1F0E4A6E000E9B
:103278000201D86F7CD04A06D8A04B06B90E4A2462
:10328800D96E020E4B20DA6E42C00EF043C00FF02A
:1032980044C010F045C011F046C012F047C013F00A
:1032A80048C014F049C015F00A0E166E000E176ECD
:1032B800000E186E000E196E000E1A6E000E1B6EB0
:1032C800000E1C6E000E1D6E8DEC25F00EC032F047
:1032D8000FC033F010C034F011C035F012C036F012
:1032E80013C037F014C038F015C039F032C020F0E0
:1032F80034C021F008EC39F02050300FDF6E3C0666
:10330800D8A03D063E06D8A03F0642C00EF043C0F6
:103318000FF044C010F045C011F046C012F047C08D
:1033280013F048C014F049C015F00A0E166E000ECE
:10333800176E000E186E000E196E000E1A6E000E33
:103348001B6E000E1C6E000E1D6EB2EC23F00EC03C
:1033580042F00FC043F010C044F011C045F012C055
:1033680046F013C047F014C048F015C049F04BBEF2
:103378001FD04B5003E14A04D8A01AD04250431042
:10338800441045104610471048104910D8A473D768
:103398003DBE05D03D5002E13C04D8B06CD73FBEDD
:1033A80007D03F5003E13E04D8A002D067B263D7EC
:1033B80040504110D8A402D067A417D04A06D8A01C
:1033C8004B0640504110D8A404D0000E3B6E2B0E83
:1033D80003D0000E3B6E2D0E3A6EB90E4A24D96EFC
:1033E800020E4B20DA6E3AC0DFFF28C01AF029C05F
:1033F8001BF0B90E4A241C6E020E4B201D6E3EC0F7
:103408001EF03FC01FF012EC31F01AC028F01BC0AC
:1034180029F0120066AE679266BE05D0665008E1D4
:103428006504D8B005D0000E3D6E010E3C6E04D088
:1034380065C03CF066C03DF0C5C03EF0C6C03FF078
:1034480067A804D0FE0E3E26FF0E3F2227C040F09C
:1034580028C041F029C042F02AC043F02BC044F0F4
:103468002CC045F02DC046F02EC047F0000E496E26
:103478001F0E486E000E0201D86F93D04806D8A0E0
:1034880049060F0E40144A6E4B6A4BBE08D04B508B
:1034980004E10A0E4A5CD8A002D0570E01D0300EC3
:1034A8004A244A6E000E4B204B6EBF0E306EFF0E44
:1034B800316E2F50326E336A3050322631503322FB
:1034C800335006E11A0E325CD8B002D0010E01D09A
:1034D800000E386E396A38503910D8B427D09F0E8C
:1034E800306EFF0E316E200E4A10326E000E4B10F9
:1034F800336E3050322631503322335006E11A0EE3
:10350800325CD8B002D0010E01D0000E3A6E3B6A90
:103518003A503B10D8B40AD04AC014F04BC015F04A
:103528006FEC36F014C04AF015C04BF0B90E4824C1
:10353800D96E020E4920DA6E4AC0DFFF3C06D8A0D9
:103548003D063E06D8A03F0640C030F041C031F0ED
:1035580042C032F043C033F044C034F045C035F0C7
:1035680046C036F047C037F0050E09D0D89037323C
:103578003632353234323332323231323032E82E6A
:10358800F5D730C040F031C041F032C042F033C00E
:1035980043F034C044F035C045F036C046F037C07B
:1035A80047F049BE20D0495004E1020E485CD8A03B
:1035B8001AD0405041104210431044104510461094
:1035C8004710D8A45BD73DBE05D03D5002E13C046E
:1035D800D8B054D73FBE07D03F5003E13E04D8A02F
:1035E80002D067B24BD767A816D04806D8A04906BC
:1035F800B90E4824D96E020E4920DA6E2FC0DFFFBB
:103608004806D8A04906B90E4824D96E020E4920AA
:10361800DA6E300EDF6E25C01AF026C01BF0B90E28
:1036280048241C6E020E49201D6E3EC01EF03FC08D
:103638001FF012EC31F01AC025F01BC026F0120062
:10364800E2D0B50E4C184D10D8B4FA2B240E4C18F5
:103658004D10D8A41200000E716E640EFA6F12009D
:10366800620E4C184D10D8A402D0FA2B1200000E8E
:103678000101FA6F12004CC0FBF14C044D10D8B494
:10368800F4D7020E4C184D10D8B4EFD7040E4C18CE
:103698004D10D8B4EAD7050E4C184D10D8B4E5D75C
:1036A800060E4C184D10D8B4E0D7090E4C184D1022
:1036B800D8B4DBD70A0E4C184D10D8B4D6D70B0E99
:1036C8004C184D10D8B4D1D70D0E4C184D10D8B495
:1036D800CCD7100E4C184D10D8B4C7D7130E4C18B1
:1036E8004D10D8B4C2D7210E4C184D10D8B4BDD740
:1036F800270E4C184D10D8B4B8D7280E4C184D10BA
:10370800D8B4B3D7B4D74CC0B8F2AFD74CC0B0F226
:103718004DC0B1F2AAD74CC0B4F24DC0B5F2020107
:10372800B451B56FB46BB051B413B151B513B451B2
:10373800B511D8B49CD7B5519AE1550EB45DD8B03F
:1037480096D70101FA2B000E0201B36F000EB26F7B
:103758001200050EFB19D8A48AD7320E0201B22531
:10376800D96E030EB321DA6E4CC0DFFFB24BB32B18
:10377800B3510BE1550EB25DD8B007D0B451B219B0
:1037880064E1B551B319D8A41200010E6E6E000E93
:103798000101FA6F12000A0E4C184D10D8B405D06A
:1037A8000D0E4C184D10D8A40FD0320E7124D96EBE
:1037B800DA6A030EDA22000EDF6E320E466E030E50
:1037C800476EB2EC13F053D7540E716401D04FD743
:1037D800320E7124D96EDA6A030EDA224CC0DFFF8A
:1037E800712A050E7118D8A41200470E0301341966
:1037F800D8A43DD7470E3519D8A439D7410E361964
:10380800D8B4120034D70101FA514E6E4F6A4F50A6
:10381800000AD8A412004E50000AD8B412D7010AE0
:10382800D8B41ED7030AD8B426D7010AD8B46BD7A0
:10383800070AD8B46BD7010AD8B46DD7030AD8B42D
:1038480088D7620AD8A41200A6D7120037C049F058
:1038580038C04AF0000E406E000E3F6E000E466EF5
:10386800000E456EB9D04550070D3950F3244F6E00
:103878004F50D96EDA6A050ED926DECF47F0DDCF74
:1038880048F04F50D96EDA6A020ED926DFA002D06E
:10389800010E01D0000E416E426A4F50D96EDA6AAD
:1038A800020ED926DFB602D0010E01D0000E436EFB
:1038B800446A4F50D96EDA6A020ED926DFA21ED0AA
:1038C80041C012F042C013F03FC014F040C015F0E0
:1038D80043C016F044C017F04F50D96EDA6ADF5073
:1038E8007BEC30F012C04DF013C04EF04D504E102E
:1038F800D8A481D0000E406E010E3F6E4150421098
:10390800D8B430D04F50D96EDA6A030ED926DECF3C
:103918004BF0DDCF4CF01DD04B504C10D8B402D03A
:10392800010E01D0000E3D6E3E6A47C012F048C03D
:1039380013F03DC014F03EC015F0A7EC31F012C0F2
:103948004DF013C04EF0474A482A4D504E10D8A4A7
:1039580052D04B06D8A04C064B28DEE14C28D8B4F0
:1039680028D0DAD74F50D96EDA6A030ED926DECFBF
:103978004BF0DDCF4CF015D043C012F044C013F02B
:1039880047C0D9FF48C0DAFFDF50DAEC34F012C084
:103998004DF013C04EF0474A482A4D504E10D8A457
:1039A8002AD04B06D8A04C064B28E6E14C28D8A4D0
:1039B800E3D74F50D96EDA6A020ED926DFA40AD0AF
:1039C80049C035F04AC036F098EC39F0000E406E28
:1039D800000E3F6E454A462A3A50455C4650800ADA
:1039E8003C6E3B50800A3C58D8A03DD7000E386E3C
:1039F800000E376E1200FB0E4D1803E14E28D8B4A6
:103A08000CD0FA0E4D1803E14E28D8B406D049C0A0
:103A180035F04AC036F098EC39F049C027F04AC072
:103A280028F03BEC2DF04DC037F04EC038F01200B6
:103A38000101326F000E01013C6F000E3B6F640EF6
:103A48000001CC19D8A406D0B50E976F7E0E986FDA
:103A580030EC3AF00001CC2B640ECC6501D012009A
:103A68008A0E976F7C0E986FCCC099F09A6B30ECE9
:103A78003AF0B50E0101006F3B4B3C2B000E3B2585
:103A8800D96E010E3C21DA6E620EDF6E3B4B3C2B89
:103A9800000E3B25D96E010E3C21DA6E32C1DFFFE4
:103AA8003B4B3C2B000E3B25D96E010E3C21DA6EB8
:103AB800A4C0DFFF3B4B3C2B000E3B25D96E010E0B
:103AC8003C21DA6EA5C0DFFF3B4B3C2B000E3B25AB
:103AD800D96E010E3C21DA6EA6C0DFFF3B4B3C2BB2
:103AE800000E346F000E336F16D033510001A72536
:103AF800D96E010134510001A821DA6E000E0101CE
:103B08003B25E16E010E3C21E26EDFCFE7FF3B4B28
:103B18003C2B334B342B0001A5510101335D0001CF
:103B2800A65101013459D8A0E0D7000E3A6F000E13
:103B3800396F000E366F020E356F0ED0000E352528
:103B4800D96E010E3621DA6EDF503A253A6F3951B7
:103B58003A25396F354B362B3B51355D3651800A46
:103B6800646E3C51800A6458D8A0E8D7000E3B2503
:103B7800D96E010E3C21DA6E3AC1DFFF3B4B3C2B7C
:103B8800000E3B25D96E010E3C21DA6E39C1DFFFEC
:103B98003B4B3C2B3CBF06D03C5126E1320E3B5DF3
:103BA800D8B01200000E386F000E376F0CD0000E20
:103BB8003725D96E010E3821DA6EDF507DEC3AF0E8
:103BC8000101374B382B3B51375D3851800A646E01
:103BD8003C51800A6458D8A0EAD7840E0001976F38
:103BE8007D0E986F30EC3AF01200000E166E000E43
:103BF800176E000E186E800E196EB80EF66E7B0EDC
:103C0800F76E0800F550FF0A126EB40EF66E7B0EC2
:103C1800F76E0900F5CF13F00900F5CF14F013C0C3
:103C2800D9FF14C0DAFF1250DF16040000F07CD070
:103C380016500E14126E17500F14136E18501014DD
:103C4800146E19501114156E12501310141015100B
:103C5800D8B418D0BD0EF66E7B0EF76E0800F5CFFF
:103C680012F0B90EF66E7B0EF76E0900F5CF13F061
:103C78000900F5CF14F013C0D9FF14C0DAFF1250B1
:103C8800DF1218D0BD0EF66E7B0EF76E0800F550E9
:103C9800FF0A126EB90EF66E7B0EF76E0900F5CFAD
:103CA80013F00900F5CF14F013C0D9FF14C0DAFFE0
:103CB8001250DF16040000F0B80EF66E7B0EF76E99
:103CC8000800F5CF12F0B40EF66E7B0EF76E090001
:103CD800F5CF13F00900F5CF14F013C0D9FF14C0C5
:103CE800DAFF1250DF12040000F0B80EF66E7B0EF9
:103CF800F76E0800F550FF0A126EB40EF66E7B0ED2
:103D0800F76E0900F5CF13F00900F5CF14F013C0D2
:103D1800D9FF14C0DAFF1250DF16040000F0D89063
:103D28001932183217321632165017101810191087
:103D3800D8A47ED7C20EF66E7B0EF76E0800F5CFBC
:103D480012F0BE0EF66E7B0EF76E0900F5CF13F07B
:103D58000900F5CF14F013C0D9FF14C0DAFF1250D0
:103D6800DF12040000F0C20EF66E7B0EF76E08003C
:103D7800F550FF0A126EBE0EF66E7B0EF76E090046
:103D8800F5CF13F00900F5CF14F013C0D9FF14C014
:103D9800DAFF1250DF16190E0400E82EFDD71200C4
:103DA8001AC0D9FF1BC0DAFFDE50DE10D8B41200EB
:103DB800030E226E000E236E000E246E000E256E7A
:103DC80020EE1EF01A50D9261B50DA22DECF1CF046
:103DD800DDCF1DF0FF0E1C141E6E0F0E1D141F6E7E
:103DE800206A216A030ED8901E361F3620362136E7
:103DF800E82EF9D71E5022121F50231220502412E9
:103E08002150251220EE1DF01A50D9261B50DA2217
:103E1800DF501C6E030E1C161CC01DF01E6A1F6AA4
:103E2800206A0F0ED8901D361E361F362036E82E13
:103E3800F9D71D5022121E5023121F502412205051
:103E4800251220EE1CF01A50D9261B50DA22DF501A
:103E58001C6E010E1C161CC01DF01E6A1F6A206A0B
:103E6800120ED8901D361E361F362036E82EF9D78A
:103E78001D5022121E5023121F50241220502512AA
:103E880020EE1BF01A50D9261B50DA22DF501C6E88
:103E9800010E1C161CC01DF01E6A1F6A206A150E32
:103EA800D8901D361E361F362036E82EF9D71D50FD
:103EB80022121E5023121F5024122050251220EEC9
:103EC8001AF01A50D9261B50DA22DF501C6E010E48
:103ED8001C161CC01DF01E6A1F6A206A160ED89098
:103EE8001D361E361F362036E82EF9D71D502212F1
:103EF8001E5023121F5024122050251220EE19F0B4
:103F08001A50D9261B50DA22DF501C6E010E1C16DF
:103F18001CC01DF01E6A1F6A206A170ED8901D3635
:103F28001E361F362036E82EF9D71D5022121E5095
:103F380023121F5024122050251222C00EF023C035
:103F48000FF024C010F025C011F0F9EC1DF012009C
:103F5800010E146E3A0E126E020E136E20EE01F070
:103F68001250D9261350DA22FF0E0E6EFF0E0F6E76
:103F7800DAC010F0DBC011F00E5010260F501122DD
:103F880011C010F0116A1050DF6E020E1426145082
:103F98001224D96E000E1320DA6E0001DA05DF6EE6
:103FA800020E142614501224D96E000E1320DA6E55
:103FB800FF0E0E6EFF0E0F6E18C210F019C211F030
:103FC8000E5010260F50112211C010F0116A105017
:103FD800DF6E020E142614501224D96E000E132020
:103FE800DA6E02011805DF6E020E14261450122430
:103FF800D96E000E1320DA6E1651200DF350800F83
:10400800DF6E020E142614501224D96E000E1320EF
:10401800DA6EFF0E0E6EFF0E0F6EFEC110F0FFC1BE
:1040280011F00E5010260F50112211C010F0116A15
:104038001050DF6E020E142614501224D96E000E92
:104048001320DA6E0101FE05DF6E020E14261450ED
:104058001224D96E000E1320DA6E02011451200DBD
:10406800F350800FDF6E020E142614501224D96EFE
:10407800000E1320DA6EFF0E0E6EFF0E0F6EFCC1DF
:1040880010F0FDC111F00E5010260F50112211C072
:1040980010F0116A1050DF6E020E1426145012240C
:1040A800D96E000E1320DA6E0101FC05DF6E020ED8
:1040B800142614501224D96E000E1320DA6EFF0E47
:1040C8000E6EFF0E0F6E12C210F013C211F00E50DA
:1040D80010260F50112211C010F0116A1050DF6E17
:1040E800020E142614501224D96E000E1320DA6E14
:1040F80002011205DF6E020E14261200800E9B6E5E
:10410800F20ED36ED3A4FED7000E9D6E000EA06EE5
:1041180047EC04F0800E276E250E286E000E296EDF
:10412800000E2A6E26EC34F0E50E356E020E366E61
:10413800A00E376E860E386E010E396E000E3A6E7E
:1041480085EC34F0E50E0001BA6F020EBB6F3C0E31
:10415800BC6F95EC2DF02DEC35F0E50E0001AA6F43
:10416800020EAB6F080EAC6F5DEC31F0E50E00018E
:10417800B86F020EB96F680EBA6FE6EC2AF0870EB8
:104188001A6E030E1B6EDEEC2FF0870E0E6E030EFA
:104198000F6E050E106E010E116E000E136E010EDD
:1041A800126E94EC36F0870E286E030E296E000E00
:1041B8002B6E010E2A6E8EEC2FF0C5EC39F0D09ED6
:1041C800F28CF28E010ED16E0400EDEC2DF0E50EAE
:1041D800B86F020EB96F680EBA6FC7EC30F0E50E13
:1041E800A46F020EA56F680EA66F34EC27F0C46F9B
:1041F800D805D8A408D0C751D819D8B404D0010E0E
:10420800C46FD8C0C7F0C4512BEC22F0870E000150
:10421800A46F030EA56F1CEC2CF0E50EA46F020E24
:10422800A56F080EA66FBAEC28F0ECEC39F009EC93
:1042380000F00001D751D8B4AFEC39F00001CB51F0
:10424800D8B419D09F0EF66E7B0EF76E0800F550A5
:10425800FF0AC16F9B0EF66E7B0EF76E0900F5CF55
:10426800C2F00900F5CFC3F0C2C0D9FFC3C0DAFF5E
:10427800C151DF16A9D79F0EF66E7B0EF76E0800A8
:10428800F5CFC1F09B0EF66E7B0EF76E0900F5CFE9
:10429800C2F00900F5CFC3F0C2C0D9FFC3C0DAFF2E
:1042A800C151DF1291D7000E296E000E286E000E44
:1042B800226E000E216E02D01B4A1C2A010E276EA8
:1042C8001BC0F6FF1CC0F7FFF86A050EF76403D0A1
:1042D8000800F55005D0F6CFE9FFF7CFEAFFEF5019
:1042E800200AD8B422D0F70E1D6EFF0E1E6E1BC01A
:1042F800F6FF1CC0F7FFF86A050EF76403D0080044
:10430800F55005D0F6CFE9FFF7CFEAFFEF501F6E63
:10431800206A1D501F261E502022205004E1050E41
:104328001F5CD8A002D0000E276E27C023F0246A95
:1043380023502410D8B408D0BFD7000E226E010E27
:10434800216E1B4A1C2A44D01BC0F6FF1CC0F7FF75
:10435800F86A050EF76403D00800F55005D0F6CFCB
:10436800E9FFF7CFEAFFEF501D6E1E6A1E50000AE4
:10437800D8A42ED01D502B0AD8B4E3D7060AD8B437
:10438800DCD726D028C015F029C016F0000E186E0C
:104398000A0E176ED9EC39F01BC0F6FF1CC0F7FFE8
:1043A800F86A050EF76403D00800F55005D0F6CF7B
:1043B800E9FFF7CFEAFFEF501D6E1D50155E000EA6
:1043C800165A300E1524286E000E1620296EB9D7FD
:1043D800D00E1D6EFF0E1E6E1BC0F6FF1CC0F7FF31
:1043E800F86A050EF76403D00800F55005D0F6CF3B
:1043F800E9FFF7CFEAFFEF501F6E206A1D501F2616
:104408001E502022205006E10A0E1F5CD8B002D0B0
:10441800010E01D0000E256E266A25502610D8A45C
:10442800B1D721502210D8A40DD028C01DF029C022
:104438001EF01D1E1E1E1D4A1E2A1DC01BF01EC07A
:104448001CF0120028C01BF029C01CF01200B86F25
:10445800F10E0001BB6F7A0EBC6F190E6D18D8A44F
:1044680004D0C90EBB6F7A0EBC6F1A0E6D18D8A493
:1044780004D0A10EBB6F7A0EBC6F1B0E6D18D8A4AA
:1044880004D0790EBB6F7A0EBC6FB851D8B402D085
:10449800010ECA6F1FEC26F0BD6F090EBD6501D075
:1044A8001200E451BD19D8A407D0B851D8A404D03B
:1044B800030ECA19D8A41200030ECA19D8A402D030
:1044C800000ECA6F340E976F7C0E986F6DC099F00E
:1044D8009A6BBDC09BF09C6BBD51040DBBC0B6F080
:1044E800BCC0B7F0F350B627F450B723B6C0F6FFF8
:1044F800B7C0F7FF0900F5CF9DF00900F5CF9EF092
:104508000900F5CF9FF00A00F5CFA0F030EC3AF0A3
:10451800BDC0E4F0030E0001BA6FE80EB96F870E54
:10452800A46F030EA56F600EA66FAE0EA76F0A0EDE
:10453800A86F000EA96F1AEC15F0020E0001B76FF4
:10454800E80EB66F510E0400E82EFDD7B62FFBD744
:10455800B72FF9D7040000F00400870E0001A46FFC
:10456800030EA56FBD51040DBBC0B6F0BCC0B7F0BB
:10457800F350B627F450B723B6C0F6FFB7C0F7FF1D
:104588000900F5CFA6F00900F5CFA7F00900F5CF8F
:10459800A8F00A00F5CFA9F01AEC15F00DD0B9076C
:1045A800D8A0BA07020E0001B66FF20E0400E82E7A
:1045B800FDD7B62FFBD70400870E0E6E030E0F6EC5
:1045C800CAEC37F00E500F10D8A405D00001B9512D
:1045D800BA11D8A4E4D70001BABF05D0BA5109E18D
:1045E800B905D8B01200FE0E976F7E0E986F30ECAA
:1045F8003AF01200770EF66E7B0EF76E0800F55053
:10460800FF0A0E6E750EF66E7B0EF76E0900F5CF7B
:10461800D9FF0900F5CFDAFF0E50DF16720EF66EDD
:104628007B0EF76E0800F5CF0EF0700EF66E7B0E5F
:10463800F76E0900F5CFD9FF0900F5CFDAFF0E5064
:10464800DF12000E126E000E116E770EF66E7B0EE4
:10465800F76E0800F550FF0A0E6E730EF66E7B0EAD
:10466800F76E0900F5CF0FF00900F5CF10F00FC075
:10467800D9FF10C0DAFF0E50DF16140E0E6E7D0E35
:104688000400E82EFDD70E2EFBD7040000F0720EB2
:10469800F66E7B0EF76E0800F5CF0EF06E0EF66E16
:1046A8007B0EF76E0900F5CF0FF00900F5CF10F07B
:1046B8000FC0D9FF10C0DAFFDF500E140009D8B4BC
:1046C80004D0000E0001D76F1200770EF66E7B0E35
:1046D800F76E0800F5CF0EF0730EF66E7B0EF76ED0
:1046E8000900F5CF0FF00900F5CF10F00FC0D9FF82
:1046F80010C0DAFF0E50DF12140E0E6E7D0E04008D
:10470800E82EFDD70E2EFBD7040000F0720EF66ED1
:104718007B0EF76E0800F5CF0EF06E0EF66E7B0E70
:10472800F76E0900F5CF0FF00900F5CF10F00FC0B4
:10473800D9FF10C0DAFFDF500E140009D8B4C1D772
:10474800114A122A12BE81D7125004E1050E115CDB
:10475800D8A07BD7010E0001D76F1200000E1F6E84
:104768001DAE12D01D1E1C1E1B1E1A1E191E181E41
:10477800171E166C000E1722182219221A221B2245
:104788001C221D22010E1F6E15AE12D0151E141EFE
:10479800131E121E111E101E0F1E0E6C000E0F226D
:1047A800102211221222132214221522010E1F1A7E
:1047B80020EE20F0070EDE6AE806FDE2165017101C
:1047C800181019101A101B101C101D10D8B446D040
:1047D800010E1E6E0AD0D8901636173618361936BE
:1047E8001A361B361C361D361E2A1DAEF4D7D89035
:1047F80020362136223623362436253626362736E5
:1048080016500E5C17500F58185010581950115860
:104818001A5012581B5013581C5014581D50155834
:10482800D8A011D016500E5E17500F5A1850105AB3
:104838001950115A1A50125A1B50135A1C50145A14
:104848001D50155A2080D8901D321C321B321A3246
:1048580019321832173216321E2EC9D71F50D8B443
:1048680010D0271E261E251E241E231E221E211E92
:10487800206C000E212222222322242225222622F5
:10488800272220C00EF021C00FF022C010F023C054
:1048980011F024C012F025C013F026C014F027C070
:1048A80015F0120022EE00F010EE18F0060EDBCF25
:1048B800E3FFE806FCE215C023F016C024F02350FD
:1048C8002410D8A403D0180E236E246A23C00EF037
:1048D80024C00FF089EC37F00EC027F00FC028F085
:1048E80065C025F066C026F026BE0ED02750255C90
:1048F8002650800A176E2850800A1758D8B004D05E
:1049080025C027F026C028F027C025F028C026F0AB
:10491800C5C021F0C6C022F067A00DD016D0000E89
:10492800106E200E0F6E13C011F014C012F05BEC65
:104938003AF0274A282A2150275C2850800A176E07
:104948002250800A1758D8A0EAD7000E206E000E11
:104958001F6E1ED023C0F6FF24C0F7FFF86A050EAD
:10496800F76403D00800F55005D0F6CFE9FFF7CF7C
:10497800EAFFEF50176E17500F6E106A13C011F050
:1049880014C012F05BEC3AF0234A242A1F4A202A6A
:1049980025501F5C2050800A176E2650800A175831
:1049A800D8A0D8D767B00DD016D0000E106E200E44
:1049B8000F6E13C011F014C012F05BEC3AF0274AE6
:1049C800282A2150275C2850800A176E2250800A16
:1049D8001758D8A0EAD727C013F028C014F012003F
:1049E8000EC018F00FC019F012501310D8B41200EE
:1049F80018C0D9FF19C0DAFF10C0DFFF1250182401
:104A0800146E13501920156EFF0E1424D96EFF0E64
:104A18001520DA6E10C0DFFF135004E1030E125C9C
:104A2800D8A0120020EE01F01850D9261950DA2229
:104A380010C0DFFF20EE02F01850D9261950DA22F4
:104A480010C0DFFF12501824146E13501920156E71
:104A5800FE0E1424D96EFF0E1520DA6E10C0DFFF8B
:104A680012501824146E13501920156EFD0E1424BC
:104A7800D96EFF0E1520DA6E10C0DFFF135004E167
:104A8800070E125CD8A0120020EE03F01850D926A9
:104A98001950DA2210C0DFFF12501824146E135078
:104AA8001920156EFC0E1424D96EFF0E1520DA6E2F
:104AB80010C0DFFF135004E1090E125CD8A01200E9
:104AC80018C014F019C015F0141E151E144A152A22
:104AD800030E1414166E176A16501826175019224A
:104AE8001650125E1750135AFC0E1216FF0E1316AC
:104AF8000BD018C0D9FF19C0DAFF10C0DFFF1206AB
:104B0800D8A01306184A192A12501310D8B4120044
:104B1800F0D7000E1F6E15AE12D0151E141E131EF0
:104B2800121E111E101E0F1E0E6C000E0F221022D8
:104B380011221222132214221522010E1F6E1DAEFD
:104B480010D01D1E1C1E1B1E1A1E191E181E171EF5
:104B5800166C000E1722182219221A221B221C2258
:104B68001D2216501710181019101A101B101C109F
:104B78001D10D8B43CD0010E1E6E0AD0D89016363F
:104B88001736183619361A361B361C361D361E2AA5
:104B98001DAEF4D716500E5C17500F581850105809
:104BA800195011581A5012581B5013581C501458A9
:104BB8001D501558D8A010D016500E5E17500F5A19
:104BC8001850105A1950115A1A50125A1B50135A89
:104BD8001C50145A1D50155AD8901D321C321B32C5
:104BE8001A3219321832173216321E2ED3D71F50E6
:104BF800D8B410D0151E141E131E121E111E101E1E
:104C08000F1E0E6C000E0F221022112212221322E8
:104C1800142215220EC00EF00FC00FF010C010F0B5
:104C280011C011F012C012F013C013F014C014F028
:104C380015C015F012006D0EF66E7B0EF76E0800AB
:104C4800F5CF0EF0690EF66E7B0EF76E0900F5CF04
:104C58000FF00900F5CF10F00FC0D9FF10C0DAFF30
:104C6800DF500E140009D8A402D0010E01D0000EA6
:104C7800116E680EF66E7B0EF76E0800F5CF0EF01B
:104C8800640EF66E7B0EF76E0900F5CF0FF0090083
:104C9800F5CF10F00FC0D9FF10C0DAFFDF500E14A7
:104CA8000009D8A402D0010E01D0000E126E630EC6
:104CB800F66E7B0EF76E0800F5CF0EF05F0EF66EFF
:104CC8007B0EF76E0900F5CF0FF00900F5CF10F055
:104CD8000FC0D9FF10C0DAFFDF500E140009D8A4A6
:104CE80002D0010E01D0000E136E5E0EF66E7B0E22
:104CF800F76E0800F5CF0EF05A0EF66E7B0EF76EC3
:104D08000900F5CF0FF00900F5CF10F00FC0D9FF5B
:104D180010C0DAFFDF500E140009D8A402D0010E2B
:104D280001D0000E146E11C00EF0D8900E36D89037
:104D38000E36D8900E3612C00FF0D8900F36D89095
:104D48000F36135013240F100E1014101200000108
:104D5800AD6F0001AD51E00FAF6F600EAF6502D0CF
:104D6800000EAF6FA50E0E6E0F6A000E116E000ECC
:104D7800106E000E136E080E126EF4EC24F0000E86
:104D88000001B16F000EB06FB151010DF3CF95F076
:104D9800F4CF96F0AF51080DF3CF97F0F4CF98F019
:104DA800290E996F770E9A6F000E9B6F9751992570
:104DB8009C6F98519A219D6F000E9B219E6F955173
:104DC8009C259F6F96519D21A06F000E9E21A16F7B
:104DD8009FC0F6FFA0C0F7FFA1C0F8FF0800F5CFFD
:104DE800A2F0B0C0A3F0010EA46FA32B02D0D890FC
:104DF800A437A32FFCD70001A451A2150009D8B4E9
:104E080002D0010E01D0000EAE6F070EB119D8A462
:104E180005D09451D8B402D0010EAE6FB1C095F050
:104E2800AEC096F0952B02D0D8909637952FFCD728
:104E38000001B051A50FD96EDA6A9651DF12B02B76
:104E4800070EB065A1D7B12B070EB1659BD7A50E8C
:104E5800626E92C063F093C064F021EC3AF01200E5
:104E6800000EAA6FB30EF66E7B0EF76E0800F5CF34
:104E7800A7F0AF0EF66E7B0EF76E0900F5CFA8F01F
:104E88000900F5CFA9F0A8C0D9FFA9C0DAFFDF5003
:104E9800A7150009D8B402D0010E01D0000EAB6FDF
:104EA800E651AB19D8B449D0ABC0E6F0AB05D8A4ED
:104EB80021D00B0E976F7F0E986F30EC3AF0000EF2
:104EC8000001D56FA90EF66E7B0EF76E0800F5CFC0
:104ED800A7F0A50EF66E7B0EF76E0900F5CFA8F0C9
:104EE8000900F5CFA9F0A8C0D9FFA9C0DAFFA751DA
:104EF800DF1223D0540E976F7F0E986F30EC3AF084
:104F0800010E0001D56FA90EF66E7B0EF76E080034
:104F1800F550FF0AA76FA50EF66E7B0EF76E090017
:104F2800F5CFA8F00900F5CFA9F0A8C0D9FFA9C00E
:104F3800DAFFA751DF16010EAA6FA4C05AF0A5C068
:104F48005BF0A6C05CF0800E5D6E3FEC3AF00001AD
:104F5800AC6FE551AC19D8B40AD0ACA102D0010E9F
:104F6800D66FACA302D0000ED66FACC0E5F0AA5144
:104F78001200A4C055F0A5C056F0A6C057F0020E06
:104F8800586E840E596E68EC37F055C0A8F056C0BC
:104F9800A9F00001A851A911D8A453D0A4C055F074
:104FA800A5C056F0A6C057F0050E586EA70E596E4C
:104FB8007FEC35F055C0A8F056C0A9F00001A85103
:104FC800A911D8A43ED0480EA713A4C055F0A5C077
:104FD80056F0A6C057F0050E586EA7C059F068ECF9
:104FE80037F055C0A8F056C0A9F00001A851A91182
:104FF800D8A427D0A4C055F0A5C056F0A6C057F035
:10500800040E586EA70E596E7FEC35F055C0A8F007
:1050180056C0A9F00001A851A911D8A412D0440E75
:10502800A713A4C055F0A5C056F0A6C057F0040EAB
:10503800586EA7C059F068EC37F055C0A8F056C0B4
:10504800A9F00001A851A911D8A407D0BD0E976FE7
:105058007C0E986F30EC3AF01200CD0E976F7B0EF5
:10506800986FA8C099F0A9C09AF030EC3AF01200F5
:105078001AC0D9FF1BC0DAFFDE50DE10D8B4120008
:10508800010E226E000E236E000E246E000E256E99
:1050980020EE09F01A50D9261B50DA22DECF1CF078
:1050A800DDCF1DF0FF0E1C141E6E0F0E1D141F6E9B
:1050B800206A216A030ED8901E361F362036213604
:1050C800E82EF9D71E5022121F5023122050241206
:1050D8002150251220EE07F01A50D9261B50DA224B
:1050E800DECF1CF0DDCF1DF0FF0E1C141E6E0F0E60
:1050F8001D141F6E206A216A0F0ED8901E361F36A7
:1051080020362136E82EF9D71E5022121F502312BE
:10511800205024122150251220EE06F01A50D926CC
:105128001B50DA22DF501C6E010E1C161CC01DF02D
:105138001E6A1F6A206A1B0ED8901D361E361F363F
:105148002036E82EF9D71D5022121E5023121F5068
:1051580024122050251222C00EF023C00FF024C0C4
:1051680010F025C011F0F9EC1DF012004F0EF66E8C
:105178007B0EF76E0800F5CFA7F04B0EF66E7B0E90
:10518800F76E0900F5CFA8F00900F5CFA9F0A8C07F
:10519800D9FFA9C0DAFFDF500001A7150009D8B46C
:1051A80002D0010E01D0000E646EE7516418D8B425
:1051B80053D06450D8B420D07B0E976F7F0E986F71
:1051C80030EC3AF08B0EF66E7B0EF76E0800F55059
:1051D800FF0A0001A76F870EF66E7B0EF76E0900B7
:1051E800F5CFA8F00900F5CFA9F0A8C0D9FFA9C04C
:1051F800DAFFA751DF162ED0A4C055F0A5C056F08F
:10520800A6C057F0000E586ED90E596E7FEC35F0D7
:10521800630E0001976F7D0E986FD9C099F09A6B55
:1052280030EC3AF08B0EF66E7B0EF76E0800F5CF79
:10523800A7F0870EF66E7B0EF76E0900F5CFA8F083
:105248000900F5CFA9F0A8C0D9FFA9C0DAFF00016D
:10525800A751DF1264C0E7F0645012009A0EF66E90
:10526800740EF76E000EF86E03EEBEF010EE1BF033
:105278000900F5CFEEFFE550E150FAE17C0EF66E3D
:105288005E0EF76E000EF86E02EE00F010EEA0F063
:105298000900F5CFEEFFE550E150FAE10C0EF66E8D
:1052A800750EF76E000EF86E01EEFCF010EE04F0CD
:1052B8000900F5CFEEFFE550E150FAE1CE0EF66EAB
:1052C800740EF76E000EF86E00EEDAF010EE0FF0C6
:1052D8000900F5CFEEFFE550E150FAE1100EF66E49
:1052E800750EF76E000EF86E0900F5CF71F004EE3A
:1052F80000F0800EEE6AE806FDE103EE00F0BE0E57
:10530800EE6AE806FDE102EEA0F0540EEE6AE80649
:10531800FDE10101FB6BFA6BF96BF86B00EEC5F070
:10532800150EEE6AE806FDE100EE65F00C0EEE6A79
:10533800E806FDE172907292000EF86E000182EFAD
:1053480020F0D751D8A404D0000EDB6F130E03D081
:10535800000EDB6F0A0EDA6FD705D8A40FD0A50EA2
:10536800976F7E0E986F30EC3AF0000E176F050EAF
:10537800166F040E0101FF6F100E18D06F04D8A429
:1053880017D06E50D8A414D0510E976F7D0E986F19
:1053980030EC3AF0000E196F180E186F000E176FE8
:1053A800050E166F020E0101FF6F8A0EFE6F22D0E6
:1053B8006E50D8B403D0E851D8A40BD0950E976F8F
:1053C8007E0E986F30EC3AF0000E196F280E186FA9
:1053D800CCD7D851D8A407D0F40E976F7B0E986F0E
:1053E80030EC3AF0D7D7D30E976F7E0E986F30EC2B
:1053F8003AF0BBD7000E0201156F050E146F000EB0
:105408000101FD6F280EFC6F000E0201136F1A0ECA
:10541800126FACEC1FF01200D751D8A404D0000EC4
:10542800DB6F130E03D0000EDB6F0A0EDA6FD705A1
:10543800D8A40FD0A50E976F7E0E986F30EC3AF077
:10544800000E176F050E166F040E0101FF6F600E38
:1054580018D06F04D8A417D06E50D8A414D0510E09
:10546800976F7D0E986F30EC3AF0000E196F180E9A
:10547800186F000E176F050E166F020E0101FF6FF1
:10548800BC0EFE6F22D06E50D8B403D0E851D8A419
:105498000BD0950E976F7E0E986F30EC3AF0000E99
:1054A800196F280E186FCCD7D851D8A407D0F40E8E
:1054B800976F7B0E986F30EC3AF0D7D7D30E976F73
:1054C8007E0E986F30EC3AF0BBD7000E0201156FD4
:1054D800070E146F000E0101FD6F200EFC6F000E09
:1054E8000201136F140E126FACEC1FF01200D751AB
:1054F800D8A404D0000EDB6F130E03D0000EDB6FB0
:105508000A0EDA6FD705D8A40FD0030E976F7D0E59
:10551800986F30EC3AF0000E176F0A0E166F020EF5
:105528000101FF6F100E18D06F04D8A417D06E5069
:10553800D8A414D0510E976F7D0E986F30EC3AF0C6
:10554800000E196F140E186F000E176F050E166FE8
:10555800020E0101FF6F260EFE6F22D06E50D8B4E6
:1055680003D0E851D8A40BD0950E976F7E0E986F94
:1055780030EC3AF0000E196F280E186FCCD7D851BE
:10558800D8A407D0140E976F7C0E986F30EC3AF0C1
:10559800D7D7D30E976F7E0E986F30EC3AF0BBD703
:1055A800000E0201156F0B0E146F000E0101FD6F46
:1055B800140EFC6F000E0201136F0C0E126FACEC90
:1055C8001FF01200B8C055F0B9C056F0BAC057F075
:1055D80046EC38F055C0BDF056C0BEF00001BD51D4
:1055E800BE11D8A451D0490E976F7F0E986F30EC3A
:1055F8003AF0B8C055F0B9C056F0BAC057F0880EA6
:10560800586E800E596E68EC37F0010E0001BC6FC1
:10561800C30EBB6FEC0E0400E82EFDD7BB2FFBD7E3
:10562800BC2FF9D7040000F00400720E0001976F38
:105638007F0E986F30EC3AF00001D751D8A411D002
:10564800B8C0A4F0B9C0A5F0BAC0A6F0330EA76FD1
:105658007B0EA86F000EAA6F0C0EA96FDFEC2CF062
:1056680010D0B8C0A4F0B9C0A5F0BAC0A6F0190E01
:10567800A76F7B0EA86F000EAA6F0D0EA96FDFEC47
:105688002CF0EDEC2DF01200C40E976F7E0E986F83
:1056980030EC3AF0120020EE36F0070EDE6AE8062B
:1056A800FDE22E502F10301031103210331034100C
:1056B8003510D8B446D0010E3E6E0AD0D8902E369A
:1056C8002F363036313632363336343635363E2A92
:1056D80035AEF4D7D89036363736383639363A3686
:1056E8003B363C363D362E50265C2F5027583050DE
:1056F80028583150295832502A5833502B58345092
:105708002C5835502D58D8A011D02E50265E2F5029
:10571800275A3050285A3150295A32502A5A335071
:105728002B5A34502C5A35502D5A3680D890353251
:10573800343233323232313230322F322E323E2E40
:10574800C9D736C026F037C027F038C028F039C08E
:1057580029F03AC02AF03BC02BF03CC02CF03DC0E9
:105768002DF01200000E176E15AE0AD0151E141E6D
:10577800131E126C000E132214221522010E176E2E
:1057880011AE0AD0111E101E0F1E0E6C000E0F2235
:1057980010221122010E171A000E186E000E196E33
:1057A800000E1A6E000E1B6E1250131014101510F6
:1057B800D8B42AD0010E166E06D0D89012361336F9
:1057C80014361536162A15AEF8D7D8901836193665
:1057D8001A361B3612500E5C13500F5814501058BE
:1057E80015501158D8A009D012500E5E13500F5AF8
:1057F8001450105A1550115A1880D8901532143276
:1058080013321232162EE1D71750D8B408D01B1E07
:105818001A1E191E186C000E19221A221B2218C0F3
:105828000EF019C00FF01AC010F01BC011F01200D2
:10583800CC0EF66E7B0EF76E0800F5CFA6F0C80EFC
:10584800F66E7B0EF76E0900F5CFA7F00900F5CFCD
:10585800A8F0A7C0D9FFA8C0DAFFDF50A615000935
:10586800D8B402D0010E01D0000E646E70506418D6
:10587800D8B412006450D8A41FD0F00E976F7E0ED3
:10588800986F30EC3AF0950EF66E7B0EF76E0800C6
:10589800F5CFA6F0910EF66E7B0EF76E0900F5CFE8
:1058A800A7F00900F5CFA8F0A7C0D9FFA8C0DAFF74
:1058B8000001A651DF121FD03D0E976F7F0E986F23
:1058C80030EC3AF0950EF66E7B0EF76E0800F55048
:1058D800FF0A0001A66F910EF66E7B0EF76E0900A7
:1058E800F5CFA7F00900F5CFA8F0A7C0D9FFA8C049
:1058F800DAFFA651DF1664C070F012001AC0D9FF93
:105908001BC0DAFFDE50DE10D8B41200000E226E83
:10591800000E236E000E246E000E256E20EE04F09D
:105928001A50D9261B50DA22DECF1CF0DDCF1DF02D
:10593800FF0E1C141E6E0F0E1D141F6E206A216AA6
:10594800030ED8901E361F3620362136E82EF9D79A
:105958001E5022121F5023122050241221502512AB
:1059680020EE02F01A50D9261B50DA22DECF1CF0A6
:10597800DDCF1DF01C501E6E1D501F6E206A216A5F
:105988000F0ED8901E361F3620362136E82EF9D74E
:105998001E5022121F50231220502412215025126B
:1059A80022C00EF023C00FF024C010F025C011F063
:1059B800F9EC1DF01200000EAE6F000EAD6F3DD079
:1059C800A4C055F0A5C056F0A6C057F0A7C0F6FF72
:1059D800A8C0F7FFF86A050EF76403D00800F55071
:1059E80005D0F6CFE9FFF7CFEAFFEF50586E010E6A
:1059F8000001A725AB6F000EA821AC6FABC0F6FF66
:105A0800ACC0F7FFF86A050EF76403D00800F5503C
:105A180005D0F6CFE9FFF7CFEAFFEF50596E68ECF3
:105A280037F055505610D8B403D00001AD4BAE2B0B
:105A3800020E0001A727000EA823A907D8A0AA07CD
:105A4800A929BEE1AA29D8A4BBD7AEBF1200AE517E
:105A580003E1AD05D8A01200530E976F7C0E986F26
:105A6800ADC099F0AEC09AF030EC3AF01200C69A88
:105A7800C650F00B0809C66EC78EC79C180E941244
:105A8800000E1A6E120E1B6E7A0E1C6E000E1D6E24
:105A980020EE04F02750D9262850DA22DECF29F04C
:105AA800DECF2AF0DECF2BF0DECF2CF0020ED8901E
:105AB80029362A362B362C36E82EF9D729C01EF07F
:105AC8002AC01FF02BC020F02CC021F0BFEC32F010
